{
  "contractName": "EigthSem",
  "abi": [
    {
      "inputs": [
        {
          "internalType": "uint256",
          "name": "",
          "type": "uint256"
        }
      ],
      "name": "eighthSem",
      "outputs": [
        {
          "internalType": "uint256",
          "name": "",
          "type": "uint256"
        }
      ],
      "stateMutability": "view",
      "type": "function",
      "constant": true
    },
    {
      "inputs": [
        {
          "internalType": "string",
          "name": "bda",
          "type": "string"
        },
        {
          "internalType": "string",
          "name": "dm",
          "type": "string"
        },
        {
          "internalType": "string",
          "name": "stvLab",
          "type": "string"
        },
        {
          "internalType": "string",
          "name": "bdaLab",
          "type": "string"
        },
        {
          "internalType": "string",
          "name": "training",
          "type": "string"
        },
        {
          "internalType": "uint256",
          "name": "studentId",
          "type": "uint256"
        }
      ],
      "name": "addEightSemesterInfo",
      "outputs": [],
      "stateMutability": "nonpayable",
      "type": "function"
    },
    {
      "inputs": [],
      "name": "getEightSemester",
      "outputs": [
        {
          "components": [
            {
              "internalType": "string",
              "name": "bda",
              "type": "string"
            },
            {
              "internalType": "string",
              "name": "dm",
              "type": "string"
            },
            {
              "internalType": "string",
              "name": "stvLab",
              "type": "string"
            },
            {
              "internalType": "string",
              "name": "bdaLab",
              "type": "string"
            },
            {
              "internalType": "string",
              "name": "training",
              "type": "string"
            },
            {
              "internalType": "uint256",
              "name": "studentId",
              "type": "uint256"
            }
          ],
          "internalType": "struct EigthSem.eighthSemInfo[]",
          "name": "",
          "type": "tuple[]"
        }
      ],
      "stateMutability": "view",
      "type": "function",
      "constant": true
    }
  ],
  "bytecode": "0x6080604052600060015534801561001557600080fd5b506109ce806100256000396000f3fe608060405234801561001057600080fd5b506004361061005d577c0100000000000000000000000000000000000000000000000000000000600035046308a6b39281146100625780631c8a4bf314610077578063795bd4251461009d575b600080fd5b6100756100703660046106fc565b6100b2565b005b61008a6100853660046107d6565b6101cb565b6040519081526020015b60405180910390f35b6100a56101ec565b604051610094919061083c565b60008054600181810183557f290decd9548b62a8d60345a988386fc84ba6bc95484008f6362f93160ef3e5639091018390556040805160c08101825289815260208181018a9052818301899052606082018890526080820187905260a0820186905292548452600283529220825180519192610133928492909101906105bd565b50602082810151805161014c92600185019201906105bd565b50604082015180516101689160028401916020909101906105bd565b50606082015180516101849160038401916020909101906105bd565b50608082015180516101a09160048401916020909101906105bd565b5060a09190910151600590910155600180549060006101be8361091b565b9190505550505050505050565b600081815481106101db57600080fd5b600091825260209091200154905081565b6060600060015467ffffffffffffffff81111561020b5761020b610656565b60405190808252806020026020018201604052801561027557816020015b6102626040518060c001604052806060815260200160608152602001606081526020016060815260200160608152602001600081525090565b8152602001906001900390816102295790505b50905060005b6001548110156105b75760008181526002602052604090819020815160c0810190925280549091908290829082906102b290610947565b80601f01602080910402602001604051908101604052809291908181526020018280546102de90610947565b801561032b5780601f106103005761010080835404028352916020019161032b565b820191906000526020600020905b81548152906001019060200180831161030e57829003601f168201915b5050505050815260200160018201805461034490610947565b80601f016020809104026020016040519081016040528092919081815260200182805461037090610947565b80156103bd5780601f10610392576101008083540402835291602001916103bd565b820191906000526020600020905b8154815290600101906020018083116103a057829003601f168201915b505050505081526020016002820180546103d690610947565b80601f016020809104026020016040519081016040528092919081815260200182805461040290610947565b801561044f5780601f106104245761010080835404028352916020019161044f565b820191906000526020600020905b81548152906001019060200180831161043257829003601f168201915b5050505050815260200160038201805461046890610947565b80601f016020809104026020016040519081016040528092919081815260200182805461049490610947565b80156104e15780601f106104b6576101008083540402835291602001916104e1565b820191906000526020600020905b8154815290600101906020018083116104c457829003601f168201915b505050505081526020016004820180546104fa90610947565b80601f016020809104026020016040519081016040528092919081815260200182805461052690610947565b80156105735780601f1061054857610100808354040283529160200191610573565b820191906000526020600020905b81548152906001019060200180831161055657829003601f168201915b505050505081526020016005820154815250508383815181106105985761059861097f565b60200260200101819052505080806105af9061091b565b91505061027b565b50919050565b8280546105c990610947565b90600052602060002090601f0160209004810192826105eb5760008555610631565b82601f1061060457805160ff1916838001178555610631565b82800160010185558215610631579182015b82811115610631578251825591602001919060010190610616565b5061063d929150610641565b5090565b5b8082111561063d5760008155600101610642565b60e060020a634e487b7102600052604160045260246000fd5b600082601f83011261068057600080fd5b813567ffffffffffffffff8082111561069b5761069b610656565b604051601f8301601f19908116603f011681019082821181831017156106c3576106c3610656565b816040528381528660208588010111156106dc57600080fd5b836020870160208301376000602085830101528094505050505092915050565b60008060008060008060c0878903121561071557600080fd5b863567ffffffffffffffff8082111561072d57600080fd5b6107398a838b0161066f565b9750602089013591508082111561074f57600080fd5b61075b8a838b0161066f565b9650604089013591508082111561077157600080fd5b61077d8a838b0161066f565b9550606089013591508082111561079357600080fd5b61079f8a838b0161066f565b945060808901359150808211156107b557600080fd5b506107c289828a0161066f565b92505060a087013590509295509295509295565b6000602082840312156107e857600080fd5b5035919050565b6000815180845260005b81811015610815576020818501810151868301820152016107f9565b81811115610827576000602083870101525b50601f01601f19169290920160200192915050565b60208082528251828201819052600091906040908185019080840286018301878501865b8381101561090d57603f19898403018552815160c08151818652610886828701826107ef565b915050888201518582038a87015261089e82826107ef565b91505087820151858203898701526108b682826107ef565b915050606080830151868303828801526108d083826107ef565b92505050608080830151868303828801526108eb83826107ef565b60a0948501519790940196909652505094870194925090860190600101610860565b509098975050505050505050565b60006000198214156109405760e060020a634e487b7102600052601160045260246000fd5b5060010190565b60028104600182168061095b57607f821691505b602082108114156105b75760e060020a634e487b7102600052602260045260246000fd5b60e060020a634e487b7102600052603260045260246000fdfea264697066735822122028e6d705554a7f7351e4c8a1c323d88a8c1b86cac6544abd8c1340c9f8e519a364736f6c634300080b0033",
  "immutableReferences": {},
  "source": "// SPDX-License-Identifier: MIT\npragma solidity >=0.4.22 <0.9.0;\npragma experimental ABIEncoderV2;\n\ncontract EigthSem {\n    uint256[] public eighthSem;\n\n    uint256 eighthSemCount = 0;\n\n    struct eighthSemInfo {\n        string bda;\n        string dm;\n        string stvLab;\n        string bdaLab;\n        string training;\n        uint256 studentId;\n    }\n\n    mapping(uint256 => eighthSemInfo) eighthSemMap;\n\n    function addEightSemesterInfo(\n        string memory bda,\n        string memory dm,\n        string memory stvLab,\n        string memory bdaLab,\n        string memory training,\n        uint256 studentId\n    ) public {\n        eighthSem.push(studentId);\n        eighthSemMap[eighthSemCount] = eighthSemInfo(\n        bda,\n        dm,\n        stvLab,\n        bdaLab,\n        training,\n        studentId\n        );\n        eighthSemCount++;\n    }\n\n    function getEightSemester() public view returns (eighthSemInfo[] memory) {\n        eighthSemInfo[] memory id = new eighthSemInfo[](eighthSemCount);\n        for (uint256 i = 0; i < eighthSemCount; i++) {\n            eighthSemInfo storage sem = eighthSemMap[i];\n            id[i] = sem;\n        }\n        return id;\n    }\n}\n",
  "sourcePath": "/home/torab/Web Projects/Blockchain/p2/Blockchain-Based-Student-Result-Management-System/Contracts/contracts/EigthSem.sol",
  "compiler": {
    "name": "solc",
    "version": "0.8.11+commit.d7f03943.Emscripten.clang"
  },
  "schemaVersion": "3.4.7",
  "updatedAt": "2022-06-13T20:59:16.439Z",
  "networkType": "ethereum",
  "devdoc": {
    "kind": "dev",
    "methods": {},
    "version": 1
  },
  "userdoc": {
    "kind": "user",
    "methods": {},
    "version": 1
  }
}