{
  "contractName": "FirstSem",
  "abi": [
    {
      "inputs": [],
      "stateMutability": "nonpayable",
      "type": "constructor"
    },
    {
      "inputs": [
        {
          "internalType": "uint256",
          "name": "",
          "type": "uint256"
        }
      ],
      "name": "firstSem",
      "outputs": [
        {
          "internalType": "uint256",
          "name": "",
          "type": "uint256"
        }
      ],
      "stateMutability": "view",
      "type": "function",
      "constant": true
    },
    {
      "inputs": [],
      "name": "contractName",
      "outputs": [
        {
          "internalType": "string",
          "name": "",
          "type": "string"
        }
      ],
      "stateMutability": "pure",
      "type": "function",
      "constant": true
    },
    {
      "inputs": [
        {
          "internalType": "string",
          "name": "mathemetics",
          "type": "string"
        },
        {
          "internalType": "string",
          "name": "chemistry",
          "type": "string"
        },
        {
          "internalType": "string",
          "name": "humanValues",
          "type": "string"
        },
        {
          "internalType": "string",
          "name": "programming",
          "type": "string"
        },
        {
          "internalType": "string",
          "name": "civil",
          "type": "string"
        },
        {
          "internalType": "string",
          "name": "chemistryLab",
          "type": "string"
        },
        {
          "internalType": "string",
          "name": "humanValueActivities",
          "type": "string"
        },
        {
          "internalType": "string",
          "name": "cpLab",
          "type": "string"
        },
        {
          "internalType": "string",
          "name": "civilLab",
          "type": "string"
        },
        {
          "internalType": "string",
          "name": "camd",
          "type": "string"
        },
        {
          "internalType": "string",
          "name": "sodeca",
          "type": "string"
        },
        {
          "internalType": "uint256",
          "name": "studentId",
          "type": "uint256"
        }
      ],
      "name": "addFirstSemesterInfo",
      "outputs": [],
      "stateMutability": "nonpayable",
      "type": "function"
    },
    {
      "inputs": [],
      "name": "getFirstSemester",
      "outputs": [
        {
          "components": [
            {
              "internalType": "string",
              "name": "mathemetics",
              "type": "string"
            },
            {
              "internalType": "string",
              "name": "chemistry",
              "type": "string"
            },
            {
              "internalType": "string",
              "name": "humanValues",
              "type": "string"
            },
            {
              "internalType": "string",
              "name": "programming",
              "type": "string"
            },
            {
              "internalType": "string",
              "name": "civil",
              "type": "string"
            },
            {
              "internalType": "string",
              "name": "chemistryLab",
              "type": "string"
            },
            {
              "internalType": "string",
              "name": "humanValueActivities",
              "type": "string"
            },
            {
              "internalType": "string",
              "name": "cpLab",
              "type": "string"
            },
            {
              "internalType": "string",
              "name": "civilLab",
              "type": "string"
            },
            {
              "internalType": "string",
              "name": "camd",
              "type": "string"
            },
            {
              "internalType": "string",
              "name": "sodeca",
              "type": "string"
            },
            {
              "internalType": "uint256",
              "name": "studentId",
              "type": "uint256"
            }
          ],
          "internalType": "struct FirstSem.firstSemInfo[]",
          "name": "",
          "type": "tuple[]"
        }
      ],
      "stateMutability": "view",
      "type": "function",
      "constant": true
    }
  ],
  "bytecode": "0x6080604052600060015534801561001557600080fd5b5061108c806100256000396000f3fe608060405234801561001057600080fd5b5060043610610068577c0100000000000000000000000000000000000000000000000000000000600035046375d0c0dc811461006d57806385341a52146100b55780638e108047146100d6578063c83c2118146100eb575b600080fd5b604080518082018252600881527f466972737453656d000000000000000000000000000000000000000000000000602082015290516100ac9190610b66565b60405180910390f35b6100c86100c3366004610b80565b610100565b6040519081526020016100ac565b6100de610121565b6040516100ac9190610b99565b6100fe6100f9366004610dc5565b61088a565b005b6000818154811061011057600080fd5b600091825260209091200154905081565b6060600060015467ffffffffffffffff81111561014057610140610d1f565b6040519080825280602002602001820160405280156101d557816020015b6101c26040518061018001604052806060815260200160608152602001606081526020016060815260200160608152602001606081526020016060815260200160608152602001606081526020016060815260200160608152602001600081525090565b81526020019060019003908161015e5790505b50905060005b600154811015610884576000818152600260205260409081902081516101808101909252805490919082908290829061021390610fd9565b80601f016020809104026020016040519081016040528092919081815260200182805461023f90610fd9565b801561028c5780601f106102615761010080835404028352916020019161028c565b820191906000526020600020905b81548152906001019060200180831161026f57829003601f168201915b505050505081526020016001820180546102a590610fd9565b80601f01602080910402602001604051908101604052809291908181526020018280546102d190610fd9565b801561031e5780601f106102f35761010080835404028352916020019161031e565b820191906000526020600020905b81548152906001019060200180831161030157829003601f168201915b5050505050815260200160028201805461033790610fd9565b80601f016020809104026020016040519081016040528092919081815260200182805461036390610fd9565b80156103b05780601f10610385576101008083540402835291602001916103b0565b820191906000526020600020905b81548152906001019060200180831161039357829003601f168201915b505050505081526020016003820180546103c990610fd9565b80601f01602080910402602001604051908101604052809291908181526020018280546103f590610fd9565b80156104425780601f1061041757610100808354040283529160200191610442565b820191906000526020600020905b81548152906001019060200180831161042557829003601f168201915b5050505050815260200160048201805461045b90610fd9565b80601f016020809104026020016040519081016040528092919081815260200182805461048790610fd9565b80156104d45780601f106104a9576101008083540402835291602001916104d4565b820191906000526020600020905b8154815290600101906020018083116104b757829003601f168201915b505050505081526020016005820180546104ed90610fd9565b80601f016020809104026020016040519081016040528092919081815260200182805461051990610fd9565b80156105665780601f1061053b57610100808354040283529160200191610566565b820191906000526020600020905b81548152906001019060200180831161054957829003601f168201915b5050505050815260200160068201805461057f90610fd9565b80601f01602080910402602001604051908101604052809291908181526020018280546105ab90610fd9565b80156105f85780601f106105cd576101008083540402835291602001916105f8565b820191906000526020600020905b8154815290600101906020018083116105db57829003601f168201915b5050505050815260200160078201805461061190610fd9565b80601f016020809104026020016040519081016040528092919081815260200182805461063d90610fd9565b801561068a5780601f1061065f5761010080835404028352916020019161068a565b820191906000526020600020905b81548152906001019060200180831161066d57829003601f168201915b505050505081526020016008820180546106a390610fd9565b80601f01602080910402602001604051908101604052809291908181526020018280546106cf90610fd9565b801561071c5780601f106106f15761010080835404028352916020019161071c565b820191906000526020600020905b8154815290600101906020018083116106ff57829003601f168201915b5050505050815260200160098201805461073590610fd9565b80601f016020809104026020016040519081016040528092919081815260200182805461076190610fd9565b80156107ae5780601f10610783576101008083540402835291602001916107ae565b820191906000526020600020905b81548152906001019060200180831161079157829003601f168201915b50505050508152602001600a820180546107c790610fd9565b80601f01602080910402602001604051908101604052809291908181526020018280546107f390610fd9565b80156108405780601f1061081557610100808354040283529160200191610840565b820191906000526020600020905b81548152906001019060200180831161082357829003601f168201915b50505050508152602001600b8201548152505083838151811061086557610865611011565b602002602001018190525050808061087c9061102a565b9150506101db565b50919050565b60008190806001815401808255809150506001900390600052602060002001600090919091909150556040518061018001604052808d81526020018c81526020018b81526020018a8152602001898152602001888152602001878152602001868152602001858152602001848152602001838152602001828152506002600060015481526020019081526020016000206000820151816000019080519060200190610936929190610a80565b50602082810151805161094f9260018501920190610a80565b506040820151805161096b916002840191602090910190610a80565b5060608201518051610987916003840191602090910190610a80565b50608082015180516109a3916004840191602090910190610a80565b5060a082015180516109bf916005840191602090910190610a80565b5060c082015180516109db916006840191602090910190610a80565b5060e082015180516109f7916007840191602090910190610a80565b506101008201518051610a14916008840191602090910190610a80565b506101208201518051610a31916009840191602090910190610a80565b506101408201518051610a4e91600a840191602090910190610a80565b506101609190910151600b9091015560018054906000610a6d8361102a565b9190505550505050505050505050505050565b828054610a8c90610fd9565b90600052602060002090601f016020900481019282610aae5760008555610af4565b82601f10610ac757805160ff1916838001178555610af4565b82800160010185558215610af4579182015b82811115610af4578251825591602001919060010190610ad9565b50610b00929150610b04565b5090565b5b80821115610b005760008155600101610b05565b6000815180845260005b81811015610b3f57602081850181015186830182015201610b23565b81811115610b51576000602083870101525b50601f01601f19169290920160200192915050565b602081526000610b796020830184610b19565b9392505050565b600060208284031215610b9257600080fd5b5035919050565b60208082528251828201819052600091906040908185019080840286018301878501865b83811015610d1157603f1989840301855281516101808151818652610be482870182610b19565b915050888201518582038a870152610bfc8282610b19565b9150508782015185820389870152610c148282610b19565b91505060608083015186830382880152610c2e8382610b19565b9250505060808083015186830382880152610c498382610b19565b9250505060a08083015186830382880152610c648382610b19565b9250505060c08083015186830382880152610c7f8382610b19565b9250505060e08083015186830382880152610c9a8382610b19565b925050506101008083015186830382880152610cb68382610b19565b925050506101208083015186830382880152610cd28382610b19565b925050506101408083015186830382880152610cee8382610b19565b610160948501519790940196909652505094870194925090860190600101610bbd565b509098975050505050505050565b60e060020a634e487b7102600052604160045260246000fd5b600082601f830112610d4957600080fd5b813567ffffffffffffffff80821115610d6457610d64610d1f565b604051601f8301601f19908116603f01168101908282118183101715610d8c57610d8c610d1f565b81604052838152866020858801011115610da557600080fd5b836020870160208301376000602085830101528094505050505092915050565b6000806000806000806000806000806000806101808d8f031215610de857600080fd5b67ffffffffffffffff8d351115610dfe57600080fd5b610e0b8e8e358f01610d38565b9b5067ffffffffffffffff60208e01351115610e2657600080fd5b610e368e60208f01358f01610d38565b9a5067ffffffffffffffff60408e01351115610e5157600080fd5b610e618e60408f01358f01610d38565b995067ffffffffffffffff60608e01351115610e7c57600080fd5b610e8c8e60608f01358f01610d38565b985067ffffffffffffffff60808e01351115610ea757600080fd5b610eb78e60808f01358f01610d38565b975067ffffffffffffffff60a08e01351115610ed257600080fd5b610ee28e60a08f01358f01610d38565b965067ffffffffffffffff60c08e01351115610efd57600080fd5b610f0d8e60c08f01358f01610d38565b955067ffffffffffffffff60e08e01351115610f2857600080fd5b610f388e60e08f01358f01610d38565b945067ffffffffffffffff6101008e01351115610f5457600080fd5b610f658e6101008f01358f01610d38565b935067ffffffffffffffff6101208e01351115610f8157600080fd5b610f928e6101208f01358f01610d38565b925067ffffffffffffffff6101408e01351115610fae57600080fd5b610fbf8e6101408f01358f01610d38565b91506101608d013590509295989b509295989b509295989b565b600281046001821680610fed57607f821691505b602082108114156108845760e060020a634e487b7102600052602260045260246000fd5b60e060020a634e487b7102600052603260045260246000fd5b600060001982141561104f5760e060020a634e487b7102600052601160045260246000fd5b506001019056fea264697066735822122020e866afaf88df6df9a576cbcbe3648c3bfaaac7730e4828ef8079be7c19184664736f6c634300080b0033",
  "immutableReferences": {},
  "source": "// SPDX-License-Identifier: MIT\npragma solidity >=0.4.22 <0.9.0;\npragma experimental ABIEncoderV2;\n\ncontract FirstSem {\n\n    uint256[] public firstSem;\n\n    uint256 firstSemCount = 0;\n\n    struct firstSemInfo {\n        string mathemetics;\n        string chemistry;\n        string humanValues;\n        string programming;\n        string civil;\n        string chemistryLab;\n        string humanValueActivities;\n        string cpLab;\n        string civilLab;\n        string camd;\n        string sodeca;\n        uint256 studentId;\n    }\n\n    mapping(uint256 => firstSemInfo) firstSemMap;\n\n    constructor() {\n    }\n\n    function contractName() public pure returns (string memory) {\n        return \"FirstSem\";\n    }\n\n    function addFirstSemesterInfo(\n        string memory mathemetics,\n        string memory chemistry,\n        string memory humanValues,\n        string memory programming,\n        string memory civil,\n        string memory chemistryLab,\n        string memory humanValueActivities,\n        string memory cpLab,\n        string memory civilLab,\n        string memory camd,\n        string memory sodeca,\n        uint256 studentId\n    ) public {\n        firstSem.push(studentId);\n        firstSemMap[firstSemCount] = firstSemInfo(\n        mathemetics,\n        chemistry,\n        humanValues,\n        programming,\n        civil,\n        chemistryLab,\n        humanValueActivities,\n        cpLab,\n        civilLab,\n        camd,\n        sodeca,\n        studentId\n        );\n        firstSemCount++;\n    }\n\n    function getFirstSemester() public view returns (firstSemInfo[] memory) {\n        firstSemInfo[] memory id = new firstSemInfo[](firstSemCount);\n        for (uint256 i = 0; i < firstSemCount; i++) {\n            firstSemInfo storage sem = firstSemMap[i];\n            id[i] = sem;\n        }\n        return id;\n    }\n\n}\n",
  "sourcePath": "/home/torab/Web Projects/Blockchain/p2/Blockchain-Based-Student-Result-Management-System/Contracts/contracts/FirstSem.sol",
  "compiler": {
    "name": "solc",
    "version": "0.8.11+commit.d7f03943.Emscripten.clang"
  },
  "schemaVersion": "3.4.7",
  "updatedAt": "2022-06-13T20:59:13.880Z",
  "networkType": "ethereum",
  "devdoc": {
    "kind": "dev",
    "methods": {},
    "version": 1
  },
  "userdoc": {
    "kind": "user",
    "methods": {},
    "version": 1
  }
}