{
  "contractName": "FourthSem",
  "abi": [
    {
      "inputs": [
        {
          "internalType": "uint256",
          "name": "",
          "type": "uint256"
        }
      ],
      "name": "fourthSem",
      "outputs": [
        {
          "internalType": "uint256",
          "name": "",
          "type": "uint256"
        }
      ],
      "stateMutability": "view",
      "type": "function",
      "constant": true
    },
    {
      "inputs": [
        {
          "internalType": "string",
          "name": "mathemetics",
          "type": "string"
        },
        {
          "internalType": "string",
          "name": "communication",
          "type": "string"
        },
        {
          "internalType": "string",
          "name": "microprocessor",
          "type": "string"
        },
        {
          "internalType": "string",
          "name": "dbms",
          "type": "string"
        },
        {
          "internalType": "string",
          "name": "toc",
          "type": "string"
        },
        {
          "internalType": "string",
          "name": "networks",
          "type": "string"
        },
        {
          "internalType": "string",
          "name": "mpLab",
          "type": "string"
        },
        {
          "internalType": "string",
          "name": "dbmsLab",
          "type": "string"
        },
        {
          "internalType": "string",
          "name": "npLab",
          "type": "string"
        },
        {
          "internalType": "string",
          "name": "linux",
          "type": "string"
        },
        {
          "internalType": "string",
          "name": "javaLab",
          "type": "string"
        },
        {
          "internalType": "uint256",
          "name": "studentId",
          "type": "uint256"
        }
      ],
      "name": "addFourthSemesterInfo",
      "outputs": [],
      "stateMutability": "nonpayable",
      "type": "function"
    },
    {
      "inputs": [],
      "name": "getFourthSemester",
      "outputs": [
        {
          "components": [
            {
              "internalType": "string",
              "name": "mathemetics",
              "type": "string"
            },
            {
              "internalType": "string",
              "name": "communication",
              "type": "string"
            },
            {
              "internalType": "string",
              "name": "microprocessor",
              "type": "string"
            },
            {
              "internalType": "string",
              "name": "dbms",
              "type": "string"
            },
            {
              "internalType": "string",
              "name": "toc",
              "type": "string"
            },
            {
              "internalType": "string",
              "name": "networks",
              "type": "string"
            },
            {
              "internalType": "string",
              "name": "mpLab",
              "type": "string"
            },
            {
              "internalType": "string",
              "name": "dbmsLab",
              "type": "string"
            },
            {
              "internalType": "string",
              "name": "npLab",
              "type": "string"
            },
            {
              "internalType": "string",
              "name": "linux",
              "type": "string"
            },
            {
              "internalType": "string",
              "name": "javaLab",
              "type": "string"
            },
            {
              "internalType": "uint256",
              "name": "studentId",
              "type": "uint256"
            }
          ],
          "internalType": "struct FourthSem.fourthSemInfo[]",
          "name": "",
          "type": "tuple[]"
        }
      ],
      "stateMutability": "view",
      "type": "function",
      "constant": true
    }
  ],
  "bytecode": "0x6080604052600060015534801561001557600080fd5b50611028806100256000396000f3fe608060405234801561001057600080fd5b506004361061005d577c010000000000000000000000000000000000000000000000000000000060003504632e02aca181146100625780637f544cff1461008057806384e910c9146100a1575b600080fd5b61006a6100b6565b6040516100779190610b1c565b60405180910390f35b61009361008e366004610ca2565b61081f565b604051908152602001610077565b6100b46100af366004610d61565b610840565b005b6060600060015467ffffffffffffffff8111156100d5576100d5610cbb565b60405190808252806020026020018201604052801561016a57816020015b6101576040518061018001604052806060815260200160608152602001606081526020016060815260200160608152602001606081526020016060815260200160608152602001606081526020016060815260200160608152602001600081525090565b8152602001906001900390816100f35790505b50905060005b60015481101561081957600081815260026020526040908190208151610180810190925280549091908290829082906101a890610f75565b80601f01602080910402602001604051908101604052809291908181526020018280546101d490610f75565b80156102215780601f106101f657610100808354040283529160200191610221565b820191906000526020600020905b81548152906001019060200180831161020457829003601f168201915b5050505050815260200160018201805461023a90610f75565b80601f016020809104026020016040519081016040528092919081815260200182805461026690610f75565b80156102b35780601f10610288576101008083540402835291602001916102b3565b820191906000526020600020905b81548152906001019060200180831161029657829003601f168201915b505050505081526020016002820180546102cc90610f75565b80601f01602080910402602001604051908101604052809291908181526020018280546102f890610f75565b80156103455780601f1061031a57610100808354040283529160200191610345565b820191906000526020600020905b81548152906001019060200180831161032857829003601f168201915b5050505050815260200160038201805461035e90610f75565b80601f016020809104026020016040519081016040528092919081815260200182805461038a90610f75565b80156103d75780601f106103ac576101008083540402835291602001916103d7565b820191906000526020600020905b8154815290600101906020018083116103ba57829003601f168201915b505050505081526020016004820180546103f090610f75565b80601f016020809104026020016040519081016040528092919081815260200182805461041c90610f75565b80156104695780601f1061043e57610100808354040283529160200191610469565b820191906000526020600020905b81548152906001019060200180831161044c57829003601f168201915b5050505050815260200160058201805461048290610f75565b80601f01602080910402602001604051908101604052809291908181526020018280546104ae90610f75565b80156104fb5780601f106104d0576101008083540402835291602001916104fb565b820191906000526020600020905b8154815290600101906020018083116104de57829003601f168201915b5050505050815260200160068201805461051490610f75565b80601f016020809104026020016040519081016040528092919081815260200182805461054090610f75565b801561058d5780601f106105625761010080835404028352916020019161058d565b820191906000526020600020905b81548152906001019060200180831161057057829003601f168201915b505050505081526020016007820180546105a690610f75565b80601f01602080910402602001604051908101604052809291908181526020018280546105d290610f75565b801561061f5780601f106105f45761010080835404028352916020019161061f565b820191906000526020600020905b81548152906001019060200180831161060257829003601f168201915b5050505050815260200160088201805461063890610f75565b80601f016020809104026020016040519081016040528092919081815260200182805461066490610f75565b80156106b15780601f10610686576101008083540402835291602001916106b1565b820191906000526020600020905b81548152906001019060200180831161069457829003601f168201915b505050505081526020016009820180546106ca90610f75565b80601f01602080910402602001604051908101604052809291908181526020018280546106f690610f75565b80156107435780601f1061071857610100808354040283529160200191610743565b820191906000526020600020905b81548152906001019060200180831161072657829003601f168201915b50505050508152602001600a8201805461075c90610f75565b80601f016020809104026020016040519081016040528092919081815260200182805461078890610f75565b80156107d55780601f106107aa576101008083540402835291602001916107d5565b820191906000526020600020905b8154815290600101906020018083116107b857829003601f168201915b50505050508152602001600b820154815250508383815181106107fa576107fa610fad565b602002602001018190525050808061081190610fc6565b915050610170565b50919050565b6000818154811061082f57600080fd5b600091825260209091200154905081565b60008190806001815401808255809150506001900390600052602060002001600090919091909150556040518061018001604052808d81526020018c81526020018b81526020018a81526020018981526020018881526020018781526020018681526020018581526020018481526020018381526020018281525060026000600154815260200190815260200160002060008201518160000190805190602001906108ec929190610a36565b5060208281015180516109059260018501920190610a36565b5060408201518051610921916002840191602090910190610a36565b506060820151805161093d916003840191602090910190610a36565b5060808201518051610959916004840191602090910190610a36565b5060a08201518051610975916005840191602090910190610a36565b5060c08201518051610991916006840191602090910190610a36565b5060e082015180516109ad916007840191602090910190610a36565b5061010082015180516109ca916008840191602090910190610a36565b5061012082015180516109e7916009840191602090910190610a36565b506101408201518051610a0491600a840191602090910190610a36565b506101609190910151600b9091015560018054906000610a2383610fc6565b9190505550505050505050505050505050565b828054610a4290610f75565b90600052602060002090601f016020900481019282610a645760008555610aaa565b82601f10610a7d57805160ff1916838001178555610aaa565b82800160010185558215610aaa579182015b82811115610aaa578251825591602001919060010190610a8f565b50610ab6929150610aba565b5090565b5b80821115610ab65760008155600101610abb565b6000815180845260005b81811015610af557602081850181015186830182015201610ad9565b81811115610b07576000602083870101525b50601f01601f19169290920160200192915050565b60208082528251828201819052600091906040908185019080840286018301878501865b83811015610c9457603f1989840301855281516101808151818652610b6782870182610acf565b915050888201518582038a870152610b7f8282610acf565b9150508782015185820389870152610b978282610acf565b91505060608083015186830382880152610bb18382610acf565b9250505060808083015186830382880152610bcc8382610acf565b9250505060a08083015186830382880152610be78382610acf565b9250505060c08083015186830382880152610c028382610acf565b9250505060e08083015186830382880152610c1d8382610acf565b925050506101008083015186830382880152610c398382610acf565b925050506101208083015186830382880152610c558382610acf565b925050506101408083015186830382880152610c718382610acf565b610160948501519790940196909652505094870194925090860190600101610b40565b509098975050505050505050565b600060208284031215610cb457600080fd5b5035919050565b60e060020a634e487b7102600052604160045260246000fd5b600082601f830112610ce557600080fd5b813567ffffffffffffffff80821115610d0057610d00610cbb565b604051601f8301601f19908116603f01168101908282118183101715610d2857610d28610cbb565b81604052838152866020858801011115610d4157600080fd5b836020870160208301376000602085830101528094505050505092915050565b6000806000806000806000806000806000806101808d8f031215610d8457600080fd5b67ffffffffffffffff8d351115610d9a57600080fd5b610da78e8e358f01610cd4565b9b5067ffffffffffffffff60208e01351115610dc257600080fd5b610dd28e60208f01358f01610cd4565b9a5067ffffffffffffffff60408e01351115610ded57600080fd5b610dfd8e60408f01358f01610cd4565b995067ffffffffffffffff60608e01351115610e1857600080fd5b610e288e60608f01358f01610cd4565b985067ffffffffffffffff60808e01351115610e4357600080fd5b610e538e60808f01358f01610cd4565b975067ffffffffffffffff60a08e01351115610e6e57600080fd5b610e7e8e60a08f01358f01610cd4565b965067ffffffffffffffff60c08e01351115610e9957600080fd5b610ea98e60c08f01358f01610cd4565b955067ffffffffffffffff60e08e01351115610ec457600080fd5b610ed48e60e08f01358f01610cd4565b945067ffffffffffffffff6101008e01351115610ef057600080fd5b610f018e6101008f01358f01610cd4565b935067ffffffffffffffff6101208e01351115610f1d57600080fd5b610f2e8e6101208f01358f01610cd4565b925067ffffffffffffffff6101408e01351115610f4a57600080fd5b610f5b8e6101408f01358f01610cd4565b91506101608d013590509295989b509295989b509295989b565b600281046001821680610f8957607f821691505b602082108114156108195760e060020a634e487b7102600052602260045260246000fd5b60e060020a634e487b7102600052603260045260246000fd5b6000600019821415610feb5760e060020a634e487b7102600052601160045260246000fd5b506001019056fea26469706673582212204a034b4c0df6f73ce61e99a3f5a7958a839088997806f9c33cb0da0ac02fcf9e64736f6c634300080b0033",
  "immutableReferences": {},
  "source": "// SPDX-License-Identifier: MIT\npragma solidity >=0.4.22 <0.9.0;\npragma experimental ABIEncoderV2;\n\ncontract FourthSem {\n    \n    uint256[] public fourthSem;\n\n    uint256 fourthSemCount = 0;\n\n    struct fourthSemInfo {\n        string mathemetics;\n        string communication;\n        string microprocessor;\n        string dbms;\n        string toc;\n        string networks;\n        string mpLab;\n        string dbmsLab;\n        string npLab;\n        string linux;\n        string javaLab;\n        uint256 studentId;\n    }\n\n    mapping(uint256 => fourthSemInfo) fourthSemMap;\n\n    function addFourthSemesterInfo(\n        string memory mathemetics,\n        string memory communication,\n        string memory microprocessor,\n        string memory dbms,\n        string memory toc,\n        string memory networks,\n        string memory mpLab,\n        string memory dbmsLab,\n        string memory npLab,\n        string memory linux,\n        string memory javaLab,\n        uint256 studentId\n    ) public {\n        fourthSem.push(studentId);\n        fourthSemMap[fourthSemCount] = fourthSemInfo(\n        mathemetics,\n        communication,\n        microprocessor,\n        dbms,\n        toc,\n        networks,\n        mpLab,\n        dbmsLab,\n        npLab,\n        linux,\n        javaLab,\n        studentId\n        );\n        fourthSemCount++;\n    }\n\n    function getFourthSemester() public view returns (fourthSemInfo[] memory) {\n        fourthSemInfo[] memory id = new fourthSemInfo[](fourthSemCount);\n        for (uint256 i = 0; i < fourthSemCount; i++) {\n            fourthSemInfo storage sem = fourthSemMap[i];\n            id[i] = sem;\n        }\n        return id;\n    }\n}\n",
  "sourcePath": "/home/torab/Web Projects/Blockchain/p2/Blockchain-Based-Student-Result-Management-System/Contracts/contracts/FourthSem.sol",
  "compiler": {
    "name": "solc",
    "version": "0.8.11+commit.d7f03943.Emscripten.clang"
  },
  "schemaVersion": "3.4.7",
  "updatedAt": "2022-06-14T17:35:35.093Z",
  "networkType": "ethereum",
  "devdoc": {
    "kind": "dev",
    "methods": {},
    "version": 1
  },
  "userdoc": {
    "kind": "user",
    "methods": {},
    "version": 1
  }
}