{
  "contractName": "SecondSem",
  "abi": [
    {
      "inputs": [
        {
          "internalType": "uint256",
          "name": "",
          "type": "uint256"
        }
      ],
      "name": "secondSem",
      "outputs": [
        {
          "internalType": "uint256",
          "name": "",
          "type": "uint256"
        }
      ],
      "stateMutability": "view",
      "type": "function",
      "constant": true
    },
    {
      "inputs": [
        {
          "internalType": "string",
          "name": "mathemetics",
          "type": "string"
        },
        {
          "internalType": "string",
          "name": "physics",
          "type": "string"
        },
        {
          "internalType": "string",
          "name": "communication",
          "type": "string"
        },
        {
          "internalType": "string",
          "name": "mechanical",
          "type": "string"
        },
        {
          "internalType": "string",
          "name": "electrical",
          "type": "string"
        },
        {
          "internalType": "string",
          "name": "physicsLab",
          "type": "string"
        },
        {
          "internalType": "string",
          "name": "languageLab",
          "type": "string"
        },
        {
          "internalType": "string",
          "name": "manufacturing",
          "type": "string"
        },
        {
          "internalType": "string",
          "name": "electricalLab",
          "type": "string"
        },
        {
          "internalType": "string",
          "name": "caeg",
          "type": "string"
        },
        {
          "internalType": "string",
          "name": "sodeca",
          "type": "string"
        },
        {
          "internalType": "uint256",
          "name": "studentId",
          "type": "uint256"
        }
      ],
      "name": "addSecondSemesterInfo",
      "outputs": [],
      "stateMutability": "nonpayable",
      "type": "function"
    },
    {
      "inputs": [],
      "name": "getSecondSemester",
      "outputs": [
        {
          "components": [
            {
              "internalType": "string",
              "name": "mathemetics",
              "type": "string"
            },
            {
              "internalType": "string",
              "name": "physics",
              "type": "string"
            },
            {
              "internalType": "string",
              "name": "communication",
              "type": "string"
            },
            {
              "internalType": "string",
              "name": "mechanical",
              "type": "string"
            },
            {
              "internalType": "string",
              "name": "electrical",
              "type": "string"
            },
            {
              "internalType": "string",
              "name": "physicsLab",
              "type": "string"
            },
            {
              "internalType": "string",
              "name": "languageLab",
              "type": "string"
            },
            {
              "internalType": "string",
              "name": "manufacturing",
              "type": "string"
            },
            {
              "internalType": "string",
              "name": "electricalLab",
              "type": "string"
            },
            {
              "internalType": "string",
              "name": "caeg",
              "type": "string"
            },
            {
              "internalType": "string",
              "name": "sodeca",
              "type": "string"
            },
            {
              "internalType": "uint256",
              "name": "studentId",
              "type": "uint256"
            }
          ],
          "internalType": "struct SecondSem.secondSemInfo[]",
          "name": "",
          "type": "tuple[]"
        }
      ],
      "stateMutability": "view",
      "type": "function",
      "constant": true
    }
  ],
  "bytecode": "0x6080604052600060015534801561001557600080fd5b50611028806100256000396000f3fe608060405234801561001057600080fd5b506004361061005d577c0100000000000000000000000000000000000000000000000000000000600035046311bdadbe81146100625780634bc4c06214610077578063c5c03fb514610095575b600080fd5b610075610070366004610b75565b6100b6565b005b61007f6102ac565b60405161008c9190610dd6565b60405180910390f35b6100a86100a3366004610f5c565b610a15565b60405190815260200161008c565b60008190806001815401808255809150506001900390600052602060002001600090919091909150556040518061018001604052808d81526020018c81526020018b81526020018a8152602001898152602001888152602001878152602001868152602001858152602001848152602001838152602001828152506002600060015481526020019081526020016000206000820151816000019080519060200190610162929190610a36565b50602082810151805161017b9260018501920190610a36565b5060408201518051610197916002840191602090910190610a36565b50606082015180516101b3916003840191602090910190610a36565b50608082015180516101cf916004840191602090910190610a36565b5060a082015180516101eb916005840191602090910190610a36565b5060c08201518051610207916006840191602090910190610a36565b5060e08201518051610223916007840191602090910190610a36565b506101008201518051610240916008840191602090910190610a36565b50610120820151805161025d916009840191602090910190610a36565b50610140820151805161027a91600a840191602090910190610a36565b506101609190910151600b909101556001805490600061029983610f75565b9190505550505050505050505050505050565b6060600060015467ffffffffffffffff8111156102cb576102cb610acf565b60405190808252806020026020018201604052801561036057816020015b61034d6040518061018001604052806060815260200160608152602001606081526020016060815260200160608152602001606081526020016060815260200160608152602001606081526020016060815260200160608152602001600081525090565b8152602001906001900390816102e95790505b50905060005b600154811015610a0f576000818152600260205260409081902081516101808101909252805490919082908290829061039e90610fa1565b80601f01602080910402602001604051908101604052809291908181526020018280546103ca90610fa1565b80156104175780601f106103ec57610100808354040283529160200191610417565b820191906000526020600020905b8154815290600101906020018083116103fa57829003601f168201915b5050505050815260200160018201805461043090610fa1565b80601f016020809104026020016040519081016040528092919081815260200182805461045c90610fa1565b80156104a95780601f1061047e576101008083540402835291602001916104a9565b820191906000526020600020905b81548152906001019060200180831161048c57829003601f168201915b505050505081526020016002820180546104c290610fa1565b80601f01602080910402602001604051908101604052809291908181526020018280546104ee90610fa1565b801561053b5780601f106105105761010080835404028352916020019161053b565b820191906000526020600020905b81548152906001019060200180831161051e57829003601f168201915b5050505050815260200160038201805461055490610fa1565b80601f016020809104026020016040519081016040528092919081815260200182805461058090610fa1565b80156105cd5780601f106105a2576101008083540402835291602001916105cd565b820191906000526020600020905b8154815290600101906020018083116105b057829003601f168201915b505050505081526020016004820180546105e690610fa1565b80601f016020809104026020016040519081016040528092919081815260200182805461061290610fa1565b801561065f5780601f106106345761010080835404028352916020019161065f565b820191906000526020600020905b81548152906001019060200180831161064257829003601f168201915b5050505050815260200160058201805461067890610fa1565b80601f01602080910402602001604051908101604052809291908181526020018280546106a490610fa1565b80156106f15780601f106106c6576101008083540402835291602001916106f1565b820191906000526020600020905b8154815290600101906020018083116106d457829003601f168201915b5050505050815260200160068201805461070a90610fa1565b80601f016020809104026020016040519081016040528092919081815260200182805461073690610fa1565b80156107835780601f1061075857610100808354040283529160200191610783565b820191906000526020600020905b81548152906001019060200180831161076657829003601f168201915b5050505050815260200160078201805461079c90610fa1565b80601f01602080910402602001604051908101604052809291908181526020018280546107c890610fa1565b80156108155780601f106107ea57610100808354040283529160200191610815565b820191906000526020600020905b8154815290600101906020018083116107f857829003601f168201915b5050505050815260200160088201805461082e90610fa1565b80601f016020809104026020016040519081016040528092919081815260200182805461085a90610fa1565b80156108a75780601f1061087c576101008083540402835291602001916108a7565b820191906000526020600020905b81548152906001019060200180831161088a57829003601f168201915b505050505081526020016009820180546108c090610fa1565b80601f01602080910402602001604051908101604052809291908181526020018280546108ec90610fa1565b80156109395780601f1061090e57610100808354040283529160200191610939565b820191906000526020600020905b81548152906001019060200180831161091c57829003601f168201915b50505050508152602001600a8201805461095290610fa1565b80601f016020809104026020016040519081016040528092919081815260200182805461097e90610fa1565b80156109cb5780601f106109a0576101008083540402835291602001916109cb565b820191906000526020600020905b8154815290600101906020018083116109ae57829003601f168201915b50505050508152602001600b820154815250508383815181106109f0576109f0610fd9565b6020026020010181905250508080610a0790610f75565b915050610366565b50919050565b60008181548110610a2557600080fd5b600091825260209091200154905081565b828054610a4290610fa1565b90600052602060002090601f016020900481019282610a645760008555610aaa565b82601f10610a7d57805160ff1916838001178555610aaa565b82800160010185558215610aaa579182015b82811115610aaa578251825591602001919060010190610a8f565b50610ab6929150610aba565b5090565b5b80821115610ab65760008155600101610abb565b60e060020a634e487b7102600052604160045260246000fd5b600082601f830112610af957600080fd5b813567ffffffffffffffff80821115610b1457610b14610acf565b604051601f8301601f19908116603f01168101908282118183101715610b3c57610b3c610acf565b81604052838152866020858801011115610b5557600080fd5b836020870160208301376000602085830101528094505050505092915050565b6000806000806000806000806000806000806101808d8f031215610b9857600080fd5b67ffffffffffffffff8d351115610bae57600080fd5b610bbb8e8e358f01610ae8565b9b5067ffffffffffffffff60208e01351115610bd657600080fd5b610be68e60208f01358f01610ae8565b9a5067ffffffffffffffff60408e01351115610c0157600080fd5b610c118e60408f01358f01610ae8565b995067ffffffffffffffff60608e01351115610c2c57600080fd5b610c3c8e60608f01358f01610ae8565b985067ffffffffffffffff60808e01351115610c5757600080fd5b610c678e60808f01358f01610ae8565b975067ffffffffffffffff60a08e01351115610c8257600080fd5b610c928e60a08f01358f01610ae8565b965067ffffffffffffffff60c08e01351115610cad57600080fd5b610cbd8e60c08f01358f01610ae8565b955067ffffffffffffffff60e08e01351115610cd857600080fd5b610ce88e60e08f01358f01610ae8565b945067ffffffffffffffff6101008e01351115610d0457600080fd5b610d158e6101008f01358f01610ae8565b935067ffffffffffffffff6101208e01351115610d3157600080fd5b610d428e6101208f01358f01610ae8565b925067ffffffffffffffff6101408e01351115610d5e57600080fd5b610d6f8e6101408f01358f01610ae8565b91506101608d013590509295989b509295989b509295989b565b6000815180845260005b81811015610daf57602081850181015186830182015201610d93565b81811115610dc1576000602083870101525b50601f01601f19169290920160200192915050565b60208082528251828201819052600091906040908185019080840286018301878501865b83811015610f4e57603f1989840301855281516101808151818652610e2182870182610d89565b915050888201518582038a870152610e398282610d89565b9150508782015185820389870152610e518282610d89565b91505060608083015186830382880152610e6b8382610d89565b9250505060808083015186830382880152610e868382610d89565b9250505060a08083015186830382880152610ea18382610d89565b9250505060c08083015186830382880152610ebc8382610d89565b9250505060e08083015186830382880152610ed78382610d89565b925050506101008083015186830382880152610ef38382610d89565b925050506101208083015186830382880152610f0f8382610d89565b925050506101408083015186830382880152610f2b8382610d89565b610160948501519790940196909652505094870194925090860190600101610dfa565b509098975050505050505050565b600060208284031215610f6e57600080fd5b5035919050565b6000600019821415610f9a5760e060020a634e487b7102600052601160045260246000fd5b5060010190565b600281046001821680610fb557607f821691505b60208210811415610a0f5760e060020a634e487b7102600052602260045260246000fd5b60e060020a634e487b7102600052603260045260246000fdfea2646970667358221220b583895014c2be4e22c10ed21b7e6ae26e25686eacff93cc63aff1a4a3f9790664736f6c634300080b0033",
  "immutableReferences": {},
  "source": "// SPDX-License-Identifier: MIT\npragma solidity >=0.4.22 <0.9.0;\npragma experimental ABIEncoderV2;\n\ncontract SecondSem {\n\n    uint256[] public secondSem;\n\n    uint256 secondSemCount = 0;\n\n    struct secondSemInfo {\n        string mathemetics;\n        string physics;\n        string communication;\n        string mechanical;\n        string electrical;\n        string physicsLab;\n        string languageLab;\n        string manufacturing;\n        string electricalLab;\n        string caeg;\n        string sodeca;\n        uint256 studentId;\n    }\n\n    mapping(uint256 => secondSemInfo) secondSemMap;\n\n    function addSecondSemesterInfo(\n        string memory mathemetics,\n        string memory physics,\n        string memory communication,\n        string memory mechanical,\n        string memory electrical,\n        string memory physicsLab,\n        string memory languageLab,\n        string memory manufacturing,\n        string memory electricalLab,\n        string memory caeg,\n        string memory sodeca,\n        uint256 studentId\n    ) public {\n        secondSem.push(studentId);\n        secondSemMap[secondSemCount] = secondSemInfo(\n        mathemetics,\n        physics,\n        communication,\n        mechanical,\n        electrical,\n        physicsLab,\n        languageLab,\n        manufacturing,\n        electricalLab,\n        caeg,\n        sodeca,\n        studentId\n        );\n        secondSemCount++;\n    }\n\n    function getSecondSemester() public view returns (secondSemInfo[] memory) {\n         secondSemInfo[] memory id = new secondSemInfo[](secondSemCount);\n        for (uint256 i = 0; i < secondSemCount; i++) {\n            secondSemInfo storage sem = secondSemMap[i];\n            id[i] = sem;\n        }\n        return id;\n    }\n}\n",
  "sourcePath": "/home/torab/Web Projects/Blockchain/p2/Blockchain-Based-Student-Result-Management-System/Contracts/contracts/SecondSem.sol",
  "compiler": {
    "name": "solc",
    "version": "0.8.11+commit.d7f03943.Emscripten.clang"
  },
  "schemaVersion": "3.4.7",
  "updatedAt": "2022-06-13T20:59:14.270Z",
  "networkType": "ethereum",
  "devdoc": {
    "kind": "dev",
    "methods": {},
    "version": 1
  },
  "userdoc": {
    "kind": "user",
    "methods": {},
    "version": 1
  }
}