{
  "contractName": "SeventhSem",
  "abi": [
    {
      "inputs": [
        {
          "internalType": "uint256",
          "name": "",
          "type": "uint256"
        }
      ],
      "name": "seventhSem",
      "outputs": [
        {
          "internalType": "uint256",
          "name": "",
          "type": "uint256"
        }
      ],
      "stateMutability": "view",
      "type": "function",
      "constant": true
    },
    {
      "inputs": [
        {
          "internalType": "string",
          "name": "iot",
          "type": "string"
        },
        {
          "internalType": "string",
          "name": "eedm",
          "type": "string"
        },
        {
          "internalType": "string",
          "name": "iotLab",
          "type": "string"
        },
        {
          "internalType": "string",
          "name": "aLab",
          "type": "string"
        },
        {
          "internalType": "string",
          "name": "sodeca",
          "type": "string"
        },
        {
          "internalType": "uint256",
          "name": "studentId",
          "type": "uint256"
        }
      ],
      "name": "addSevenSemesterInfo",
      "outputs": [],
      "stateMutability": "nonpayable",
      "type": "function"
    },
    {
      "inputs": [],
      "name": "getSevenSemester",
      "outputs": [
        {
          "components": [
            {
              "internalType": "string",
              "name": "iot",
              "type": "string"
            },
            {
              "internalType": "string",
              "name": "eedm",
              "type": "string"
            },
            {
              "internalType": "string",
              "name": "iotLab",
              "type": "string"
            },
            {
              "internalType": "string",
              "name": "aLab",
              "type": "string"
            },
            {
              "internalType": "string",
              "name": "sodeca",
              "type": "string"
            },
            {
              "internalType": "uint256",
              "name": "studentId",
              "type": "uint256"
            }
          ],
          "internalType": "struct SeventhSem.seventhSemInfo[]",
          "name": "",
          "type": "tuple[]"
        }
      ],
      "stateMutability": "view",
      "type": "function",
      "constant": true
    }
  ],
  "bytecode": "0x6080604052600060015534801561001557600080fd5b506109ce806100256000396000f3fe608060405234801561001057600080fd5b506004361061005d577c010000000000000000000000000000000000000000000000000000000060003504631aeb277381146100625780632a439f5f14610088578063a0e1cadd1461009d575b600080fd5b610075610070366004610656565b6100b2565b6040519081526020015b60405180910390f35b61009b610096366004610715565b6100d3565b005b6100a56101ec565b60405161007f919061083c565b600081815481106100c257600080fd5b600091825260209091200154905081565b60008054600181810183557f290decd9548b62a8d60345a988386fc84ba6bc95484008f6362f93160ef3e5639091018390556040805160c08101825289815260208181018a9052818301899052606082018890526080820187905260a0820186905292548452600283529220825180519192610154928492909101906105bd565b50602082810151805161016d92600185019201906105bd565b50604082015180516101899160028401916020909101906105bd565b50606082015180516101a59160038401916020909101906105bd565b50608082015180516101c19160048401916020909101906105bd565b5060a09190910151600590910155600180549060006101df8361091b565b9190505550505050505050565b6060600060015467ffffffffffffffff81111561020b5761020b61066f565b60405190808252806020026020018201604052801561027557816020015b6102626040518060c001604052806060815260200160608152602001606081526020016060815260200160608152602001600081525090565b8152602001906001900390816102295790505b50905060005b6001548110156105b75760008181526002602052604090819020815160c0810190925280549091908290829082906102b290610947565b80601f01602080910402602001604051908101604052809291908181526020018280546102de90610947565b801561032b5780601f106103005761010080835404028352916020019161032b565b820191906000526020600020905b81548152906001019060200180831161030e57829003601f168201915b5050505050815260200160018201805461034490610947565b80601f016020809104026020016040519081016040528092919081815260200182805461037090610947565b80156103bd5780601f10610392576101008083540402835291602001916103bd565b820191906000526020600020905b8154815290600101906020018083116103a057829003601f168201915b505050505081526020016002820180546103d690610947565b80601f016020809104026020016040519081016040528092919081815260200182805461040290610947565b801561044f5780601f106104245761010080835404028352916020019161044f565b820191906000526020600020905b81548152906001019060200180831161043257829003601f168201915b5050505050815260200160038201805461046890610947565b80601f016020809104026020016040519081016040528092919081815260200182805461049490610947565b80156104e15780601f106104b6576101008083540402835291602001916104e1565b820191906000526020600020905b8154815290600101906020018083116104c457829003601f168201915b505050505081526020016004820180546104fa90610947565b80601f016020809104026020016040519081016040528092919081815260200182805461052690610947565b80156105735780601f1061054857610100808354040283529160200191610573565b820191906000526020600020905b81548152906001019060200180831161055657829003601f168201915b505050505081526020016005820154815250508383815181106105985761059861097f565b60200260200101819052505080806105af9061091b565b91505061027b565b50919050565b8280546105c990610947565b90600052602060002090601f0160209004810192826105eb5760008555610631565b82601f1061060457805160ff1916838001178555610631565b82800160010185558215610631579182015b82811115610631578251825591602001919060010190610616565b5061063d929150610641565b5090565b5b8082111561063d5760008155600101610642565b60006020828403121561066857600080fd5b5035919050565b60e060020a634e487b7102600052604160045260246000fd5b600082601f83011261069957600080fd5b813567ffffffffffffffff808211156106b4576106b461066f565b604051601f8301601f19908116603f011681019082821181831017156106dc576106dc61066f565b816040528381528660208588010111156106f557600080fd5b836020870160208301376000602085830101528094505050505092915050565b60008060008060008060c0878903121561072e57600080fd5b863567ffffffffffffffff8082111561074657600080fd5b6107528a838b01610688565b9750602089013591508082111561076857600080fd5b6107748a838b01610688565b9650604089013591508082111561078a57600080fd5b6107968a838b01610688565b955060608901359150808211156107ac57600080fd5b6107b88a838b01610688565b945060808901359150808211156107ce57600080fd5b506107db89828a01610688565b92505060a087013590509295509295509295565b6000815180845260005b81811015610815576020818501810151868301820152016107f9565b81811115610827576000602083870101525b50601f01601f19169290920160200192915050565b60208082528251828201819052600091906040908185019080840286018301878501865b8381101561090d57603f19898403018552815160c08151818652610886828701826107ef565b915050888201518582038a87015261089e82826107ef565b91505087820151858203898701526108b682826107ef565b915050606080830151868303828801526108d083826107ef565b92505050608080830151868303828801526108eb83826107ef565b60a0948501519790940196909652505094870194925090860190600101610860565b509098975050505050505050565b60006000198214156109405760e060020a634e487b7102600052601160045260246000fd5b5060010190565b60028104600182168061095b57607f821691505b602082108114156105b75760e060020a634e487b7102600052602260045260246000fd5b60e060020a634e487b7102600052603260045260246000fdfea26469706673582212207c43e22f3fdd23879e77d7600e6fc398725ad4da1ac802f19234a43d6a14a30a64736f6c634300080b0033",
  "immutableReferences": {},
  "source": "// SPDX-License-Identifier: MIT\npragma solidity >=0.4.22 <0.9.0;\npragma experimental ABIEncoderV2;\n\ncontract SeventhSem {\n    uint256[] public seventhSem;\n\n    uint256 seventhSemCount = 0;\n\n    struct seventhSemInfo {\n        string iot;\n        string eedm;\n        string iotLab;\n        string aLab;\n        string sodeca;\n        uint256 studentId;\n    }\n\n    mapping(uint256 => seventhSemInfo) seventhSemMap;\n\n    function addSevenSemesterInfo(\n        string memory iot,\n        string memory eedm,\n        string memory iotLab,\n        string memory aLab,\n        string memory sodeca,\n        uint256 studentId\n    ) public {\n        seventhSem.push(studentId);\n        seventhSemMap[seventhSemCount] = seventhSemInfo(\n        iot,\n        eedm,\n        iotLab,\n        aLab,\n        sodeca,\n        studentId\n        );\n        seventhSemCount++;\n    }\n\n    function getSevenSemester() public view returns (seventhSemInfo[] memory) {\n        seventhSemInfo[] memory id = new seventhSemInfo[](seventhSemCount);\n        for (uint256 i = 0; i < seventhSemCount; i++) {\n            seventhSemInfo storage sem = seventhSemMap[i];\n            id[i] = sem;\n        }\n        return id;\n    }\n}\n",
  "sourcePath": "/home/torab/Web Projects/Blockchain/p2/Blockchain-Based-Student-Result-Management-System/Contracts/contracts/SeventhSem.sol",
  "compiler": {
    "name": "solc",
    "version": "0.8.11+commit.d7f03943.Emscripten.clang"
  },
  "schemaVersion": "3.4.7",
  "updatedAt": "2022-06-14T17:35:36.478Z",
  "networkType": "ethereum",
  "devdoc": {
    "kind": "dev",
    "methods": {},
    "version": 1
  },
  "userdoc": {
    "kind": "user",
    "methods": {},
    "version": 1
  }
}