{
  "contractName": "StudentResult",
  "abi": [
    {
      "inputs": [],
      "stateMutability": "nonpayable",
      "type": "constructor"
    },
    {
      "anonymous": false,
      "inputs": [
        {
          "indexed": false,
          "internalType": "address payable",
          "name": "_destinoTransferencia",
          "type": "address"
        },
        {
          "indexed": false,
          "internalType": "address",
          "name": "_origenTransferencia",
          "type": "address"
        },
        {
          "indexed": false,
          "internalType": "uint256",
          "name": "montoTransferencia",
          "type": "uint256"
        }
      ],
      "name": "TransferirMonto",
      "type": "event"
    },
    {
      "inputs": [
        {
          "internalType": "uint256",
          "name": "",
          "type": "uint256"
        }
      ],
      "name": "allClasses",
      "outputs": [
        {
          "internalType": "uint256",
          "name": "",
          "type": "uint256"
        }
      ],
      "stateMutability": "view",
      "type": "function",
      "constant": true
    },
    {
      "inputs": [
        {
          "internalType": "uint256",
          "name": "",
          "type": "uint256"
        }
      ],
      "name": "allStudents",
      "outputs": [
        {
          "internalType": "uint256",
          "name": "",
          "type": "uint256"
        }
      ],
      "stateMutability": "view",
      "type": "function",
      "constant": true
    },
    {
      "inputs": [
        {
          "internalType": "address payable",
          "name": "_destinoTransferencia",
          "type": "address"
        }
      ],
      "name": "nuevaTransaccion",
      "outputs": [
        {
          "internalType": "bool",
          "name": "",
          "type": "bool"
        }
      ],
      "stateMutability": "payable",
      "type": "function",
      "payable": true
    },
    {
      "inputs": [],
      "name": "verBalanceCuenta",
      "outputs": [
        {
          "internalType": "uint256",
          "name": "",
          "type": "uint256"
        }
      ],
      "stateMutability": "payable",
      "type": "function",
      "payable": true
    },
    {
      "inputs": [],
      "name": "contractName",
      "outputs": [
        {
          "internalType": "string",
          "name": "",
          "type": "string"
        }
      ],
      "stateMutability": "pure",
      "type": "function",
      "constant": true
    },
    {
      "inputs": [],
      "name": "hello",
      "outputs": [
        {
          "internalType": "string",
          "name": "",
          "type": "string"
        }
      ],
      "stateMutability": "pure",
      "type": "function",
      "constant": true
    },
    {
      "inputs": [
        {
          "internalType": "string",
          "name": "className",
          "type": "string"
        },
        {
          "internalType": "uint256",
          "name": "classId",
          "type": "uint256"
        }
      ],
      "name": "addClass",
      "outputs": [],
      "stateMutability": "nonpayable",
      "type": "function"
    },
    {
      "inputs": [
        {
          "internalType": "string",
          "name": "name",
          "type": "string"
        },
        {
          "internalType": "string",
          "name": "batch",
          "type": "string"
        },
        {
          "internalType": "string",
          "name": "rollno",
          "type": "string"
        },
        {
          "internalType": "string",
          "name": "email",
          "type": "string"
        },
        {
          "internalType": "string",
          "name": "father",
          "type": "string"
        },
        {
          "internalType": "string",
          "name": "mother",
          "type": "string"
        },
        {
          "internalType": "string",
          "name": "admission",
          "type": "string"
        },
        {
          "internalType": "string",
          "name": "college",
          "type": "string"
        },
        {
          "internalType": "uint256",
          "name": "studentId",
          "type": "uint256"
        },
        {
          "internalType": "uint256",
          "name": "classId",
          "type": "uint256"
        }
      ],
      "name": "addStudent",
      "outputs": [],
      "stateMutability": "nonpayable",
      "type": "function"
    },
    {
      "inputs": [],
      "name": "getAllClasses",
      "outputs": [
        {
          "components": [
            {
              "internalType": "string",
              "name": "className",
              "type": "string"
            },
            {
              "internalType": "uint256",
              "name": "classId",
              "type": "uint256"
            }
          ],
          "internalType": "struct StudentResult.classInfo[]",
          "name": "",
          "type": "tuple[]"
        }
      ],
      "stateMutability": "view",
      "type": "function",
      "constant": true
    },
    {
      "inputs": [],
      "name": "getAllStudent",
      "outputs": [
        {
          "components": [
            {
              "internalType": "string",
              "name": "name",
              "type": "string"
            },
            {
              "internalType": "string",
              "name": "batch",
              "type": "string"
            },
            {
              "internalType": "string",
              "name": "rollno",
              "type": "string"
            },
            {
              "internalType": "string",
              "name": "email",
              "type": "string"
            },
            {
              "internalType": "string",
              "name": "father",
              "type": "string"
            },
            {
              "internalType": "string",
              "name": "mother",
              "type": "string"
            },
            {
              "internalType": "string",
              "name": "admission",
              "type": "string"
            },
            {
              "internalType": "string",
              "name": "college",
              "type": "string"
            },
            {
              "internalType": "uint256",
              "name": "classId",
              "type": "uint256"
            },
            {
              "internalType": "uint256",
              "name": "studentId",
              "type": "uint256"
            }
          ],
          "internalType": "struct StudentResult.studentInfo[]",
          "name": "",
          "type": "tuple[]"
        }
      ],
      "stateMutability": "view",
      "type": "function",
      "constant": true
    }
  ],
  "bytecode": "0x60806040526000600255600060035534801561001a57600080fd5b5033600660006101000a81548173ffffffffffffffffffffffffffffffffffffffff021916908373ffffffffffffffffffffffffffffffffffffffff16021790555061192d8061006b6000396000f3fe6080604052600436106100915760003560e01c8063b319b5aa11610059578063b319b5aa14610160578063b7e6a2e814610189578063e005f920146101b2578063e6a852cc146101e2578063ea2f27781461021f57610091565b8063133d04601461009657806319ff1d21146100c15780636bda75dd146100ec57806372e713ac1461011757806375d0c0dc14610135575b600080fd5b3480156100a257600080fd5b506100ab61025c565b6040516100b89190611131565b60405180910390f35b3480156100cd57600080fd5b506100d66107c7565b6040516100e3919061119d565b60405180910390f35b3480156100f857600080fd5b50610101610804565b60405161010e91906112be565b60405180910390f35b61011f610966565b60405161012c91906112ef565b60405180910390f35b34801561014157600080fd5b5061014a6109a7565b604051610157919061119d565b60405180910390f35b34801561016c57600080fd5b506101876004803603810190610182919061147f565b6109e4565b005b34801561019557600080fd5b506101b060048036038101906101ab91906114db565b610a7d565b005b6101cc60048036038101906101c791906116f8565b610c26565b6040516101d99190611740565b60405180910390f35b3480156101ee57600080fd5b506102096004803603810190610204919061175b565b610d5a565b60405161021691906112ef565b60405180910390f35b34801561022b57600080fd5b506102466004803603810190610241919061175b565b610d7e565b60405161025391906112ef565b60405180910390f35b6060600060025467ffffffffffffffff81111561027c5761027b611328565b5b6040519080825280602002602001820160405280156102b557816020015b6102a2610da2565b81526020019060019003908161029a5790505b50905060005b6002548110156107bf57600060056000838152602001908152602001600020905080604051806101400160405290816000820180546102f9906117b7565b80601f0160208091040260200160405190810160405280929190818152602001828054610325906117b7565b80156103725780601f1061034757610100808354040283529160200191610372565b820191906000526020600020905b81548152906001019060200180831161035557829003601f168201915b5050505050815260200160018201805461038b906117b7565b80601f01602080910402602001604051908101604052809291908181526020018280546103b7906117b7565b80156104045780601f106103d957610100808354040283529160200191610404565b820191906000526020600020905b8154815290600101906020018083116103e757829003601f168201915b5050505050815260200160028201805461041d906117b7565b80601f0160208091040260200160405190810160405280929190818152602001828054610449906117b7565b80156104965780601f1061046b57610100808354040283529160200191610496565b820191906000526020600020905b81548152906001019060200180831161047957829003601f168201915b505050505081526020016003820180546104af906117b7565b80601f01602080910402602001604051908101604052809291908181526020018280546104db906117b7565b80156105285780601f106104fd57610100808354040283529160200191610528565b820191906000526020600020905b81548152906001019060200180831161050b57829003601f168201915b50505050508152602001600482018054610541906117b7565b80601f016020809104026020016040519081016040528092919081815260200182805461056d906117b7565b80156105ba5780601f1061058f576101008083540402835291602001916105ba565b820191906000526020600020905b81548152906001019060200180831161059d57829003601f168201915b505050505081526020016005820180546105d3906117b7565b80601f01602080910402602001604051908101604052809291908181526020018280546105ff906117b7565b801561064c5780601f106106215761010080835404028352916020019161064c565b820191906000526020600020905b81548152906001019060200180831161062f57829003601f168201915b50505050508152602001600682018054610665906117b7565b80601f0160208091040260200160405190810160405280929190818152602001828054610691906117b7565b80156106de5780601f106106b3576101008083540402835291602001916106de565b820191906000526020600020905b8154815290600101906020018083116106c157829003601f168201915b505050505081526020016007820180546106f7906117b7565b80601f0160208091040260200160405190810160405280929190818152602001828054610723906117b7565b80156107705780601f1061074557610100808354040283529160200191610770565b820191906000526020600020905b81548152906001019060200180831161075357829003601f168201915b50505050508152602001600882015481526020016009820154815250508383815181106107a05761079f6117e9565b5b60200260200101819052505080806107b790611847565b9150506102bb565b508091505090565b60606040518060400160405280600e81526020017f48656c6c6f2053747564656e7473000000000000000000000000000000000000815250905090565b6060600060035467ffffffffffffffff81111561082457610823611328565b5b60405190808252806020026020018201604052801561085d57816020015b61084a610df5565b8152602001906001900390816108425790505b50905060005b60035481101561095e576000600460008381526020019081526020016000209050806040518060400160405290816000820180546108a0906117b7565b80601f01602080910402602001604051908101604052809291908181526020018280546108cc906117b7565b80156109195780601f106108ee57610100808354040283529160200191610919565b820191906000526020600020905b8154815290600101906020018083116108fc57829003601f168201915b5050505050815260200160018201548152505083838151811061093f5761093e6117e9565b5b602002602001018190525050808061095690611847565b915050610863565b508091505090565b6000600660009054906101000a900473ffffffffffffffffffffffffffffffffffffffff1673ffffffffffffffffffffffffffffffffffffffff1631905090565b60606040518060400160405280600881526020017f486972656e647261000000000000000000000000000000000000000000000000815250905090565b6040518060400160405280838152602001828152506004600060035481526020019081526020016000206000820151816000019080519060200190610a2a929190610e0f565b5060208201518160010155905050600081908060018154018082558091505060019003906000526020600020016000909190919091505560036000815480929190610a7490611847565b91905055505050565b60018290806001815401808255809150506001900390600052602060002001600090919091909150556040518061014001604052808b81526020018a8152602001898152602001888152602001878152602001868152602001858152602001848152602001828152602001838152506005600060025481526020019081526020016000206000820151816000019080519060200190610b1d929190610e0f565b506020820151816001019080519060200190610b3a929190610e0f565b506040820151816002019080519060200190610b57929190610e0f565b506060820151816003019080519060200190610b74929190610e0f565b506080820151816004019080519060200190610b91929190610e0f565b5060a0820151816005019080519060200190610bae929190610e0f565b5060c0820151816006019080519060200190610bcb929190610e0f565b5060e0820151816007019080519060200190610be8929190610e0f565b506101008201518160080155610120820151816009015590505060026000815480929190610c1590611847565b919050555050505050505050505050565b600081600760006101000a81548173ffffffffffffffffffffffffffffffffffffffff021916908373ffffffffffffffffffffffffffffffffffffffff160217905550600760009054906101000a900473ffffffffffffffffffffffffffffffffffffffff1673ffffffffffffffffffffffffffffffffffffffff166108fc349081150290604051600060405180830381858888f19350505050158015610cd1573d6000803e3d6000fd5b507ffc1ff50638c53d8cb428005e102107cffd2da1840abf5289da2981b8e99c6420600760009054906101000a900473ffffffffffffffffffffffffffffffffffffffff16600660009054906101000a900473ffffffffffffffffffffffffffffffffffffffff1634604051610d49939291906118c0565b60405180910390a160019050919050565b60018181548110610d6a57600080fd5b906000526020600020016000915090505481565b60008181548110610d8e57600080fd5b906000526020600020016000915090505481565b604051806101400160405280606081526020016060815260200160608152602001606081526020016060815260200160608152602001606081526020016060815260200160008152602001600081525090565b604051806040016040528060608152602001600081525090565b828054610e1b906117b7565b90600052602060002090601f016020900481019282610e3d5760008555610e84565b82601f10610e5657805160ff1916838001178555610e84565b82800160010185558215610e84579182015b82811115610e83578251825591602001919060010190610e68565b5b509050610e919190610e95565b5090565b5b80821115610eae576000816000905550600101610e96565b5090565b600081519050919050565b600082825260208201905092915050565b6000819050602082019050919050565b600081519050919050565b600082825260208201905092915050565b60005b83811015610f18578082015181840152602081019050610efd565b83811115610f27576000848401525b50505050565b6000601f19601f8301169050919050565b6000610f4982610ede565b610f538185610ee9565b9350610f63818560208601610efa565b610f6c81610f2d565b840191505092915050565b6000819050919050565b610f8a81610f77565b82525050565b6000610140830160008301518482036000860152610fae8282610f3e565b91505060208301518482036020860152610fc88282610f3e565b91505060408301518482036040860152610fe28282610f3e565b91505060608301518482036060860152610ffc8282610f3e565b915050608083015184820360808601526110168282610f3e565b91505060a083015184820360a08601526110308282610f3e565b91505060c083015184820360c086015261104a8282610f3e565b91505060e083015184820360e08601526110648282610f3e565b91505061010083015161107b610100860182610f81565b50610120830151611090610120860182610f81565b508091505092915050565b60006110a78383610f90565b905092915050565b6000602082019050919050565b60006110c782610eb2565b6110d18185610ebd565b9350836020820285016110e385610ece565b8060005b8581101561111f5784840389528151611100858261109b565b945061110b836110af565b925060208a019950506001810190506110e7565b50829750879550505050505092915050565b6000602082019050818103600083015261114b81846110bc565b905092915050565b600082825260208201905092915050565b600061116f82610ede565b6111798185611153565b9350611189818560208601610efa565b61119281610f2d565b840191505092915050565b600060208201905081810360008301526111b78184611164565b905092915050565b600081519050919050565b600082825260208201905092915050565b6000819050602082019050919050565b600060408301600083015184820360008601526112088282610f3e565b915050602083015161121d6020860182610f81565b508091505092915050565b600061123483836111eb565b905092915050565b6000602082019050919050565b6000611254826111bf565b61125e81856111ca565b935083602082028501611270856111db565b8060005b858110156112ac578484038952815161128d8582611228565b94506112988361123c565b925060208a01995050600181019050611274565b50829750879550505050505092915050565b600060208201905081810360008301526112d88184611249565b905092915050565b6112e981610f77565b82525050565b600060208201905061130460008301846112e0565b92915050565b6000604051905090565b600080fd5b600080fd5b600080fd5b600080fd5b7f4e487b7100000000000000000000000000000000000000000000000000000000600052604160045260246000fd5b61136082610f2d565b810181811067ffffffffffffffff8211171561137f5761137e611328565b5b80604052505050565b600061139261130a565b905061139e8282611357565b919050565b600067ffffffffffffffff8211156113be576113bd611328565b5b6113c782610f2d565b9050602081019050919050565b82818337600083830152505050565b60006113f66113f1846113a3565b611388565b90508281526020810184848401111561141257611411611323565b5b61141d8482856113d4565b509392505050565b600082601f83011261143a5761143961131e565b5b813561144a8482602086016113e3565b91505092915050565b61145c81610f77565b811461146757600080fd5b50565b60008135905061147981611453565b92915050565b6000806040838503121561149657611495611314565b5b600083013567ffffffffffffffff8111156114b4576114b3611319565b5b6114c085828601611425565b92505060206114d18582860161146a565b9150509250929050565b6000806000806000806000806000806101408b8d0312156114ff576114fe611314565b5b60008b013567ffffffffffffffff81111561151d5761151c611319565b5b6115298d828e01611425565b9a505060208b013567ffffffffffffffff81111561154a57611549611319565b5b6115568d828e01611425565b99505060408b013567ffffffffffffffff81111561157757611576611319565b5b6115838d828e01611425565b98505060608b013567ffffffffffffffff8111156115a4576115a3611319565b5b6115b08d828e01611425565b97505060808b013567ffffffffffffffff8111156115d1576115d0611319565b5b6115dd8d828e01611425565b96505060a08b013567ffffffffffffffff8111156115fe576115fd611319565b5b61160a8d828e01611425565b95505060c08b013567ffffffffffffffff81111561162b5761162a611319565b5b6116378d828e01611425565b94505060e08b013567ffffffffffffffff81111561165857611657611319565b5b6116648d828e01611425565b9350506101006116768d828e0161146a565b9250506101206116888d828e0161146a565b9150509295989b9194979a5092959850565b600073ffffffffffffffffffffffffffffffffffffffff82169050919050565b60006116c58261169a565b9050919050565b6116d5816116ba565b81146116e057600080fd5b50565b6000813590506116f2816116cc565b92915050565b60006020828403121561170e5761170d611314565b5b600061171c848285016116e3565b91505092915050565b60008115159050919050565b61173a81611725565b82525050565b60006020820190506117556000830184611731565b92915050565b60006020828403121561177157611770611314565b5b600061177f8482850161146a565b91505092915050565b7f4e487b7100000000000000000000000000000000000000000000000000000000600052602260045260246000fd5b600060028204905060018216806117cf57607f821691505b602082108114156117e3576117e2611788565b5b50919050565b7f4e487b7100000000000000000000000000000000000000000000000000000000600052603260045260246000fd5b7f4e487b7100000000000000000000000000000000000000000000000000000000600052601160045260246000fd5b600061185282610f77565b91507fffffffffffffffffffffffffffffffffffffffffffffffffffffffffffffffff82141561188557611884611818565b5b600182019050919050565b611899816116ba565b82525050565b60006118aa8261169a565b9050919050565b6118ba8161189f565b82525050565b60006060820190506118d56000830186611890565b6118e260208301856118b1565b6118ef60408301846112e0565b94935050505056fea2646970667358221220dfe98b5c3c294600362dd5dcecd67e8ecda0102a0461d4a0f016a20a77b21a2864736f6c634300080b0033",
  "immutableReferences": {},
  "source": "// SPDX-License-Identifier: MIT\npragma solidity >=0.4.22 <0.9.0;\npragma experimental ABIEncoderV2;\n\ncontract StudentResult {\n    uint256[] public allClasses;\n\n    uint256[] public allStudents;\n\n    uint256 studentCount = 0;\n\n    uint256 classCount = 0;\n\n    struct classInfo {\n        string className;\n        uint256 classId;\n    }\n\n    struct studentInfo {\n        string name;\n        string batch;\n        string rollno;\n        string email;\n        string father;\n        string mother;\n        string admission;\n        string college;\n        uint256 classId;\n        uint256 studentId;\n    }\n\n    mapping(uint256 => classInfo) classes;\n\n    mapping(uint256 => studentInfo) studentInfos;\n\n    address origenTransferencia;\n    address payable destinoTransferencia;\n    uint256 montoTransferencia;\n\n    constructor() {\n        origenTransferencia = msg.sender;\n    }\n\n    event TransferirMonto(\n        address payable _destinoTransferencia,\n        address _origenTransferencia,\n        uint256 montoTransferencia\n    );\n\n    function nuevaTransaccion(address payable _destinoTransferencia)\n        public\n        payable\n        returns (bool)\n    {\n        destinoTransferencia = _destinoTransferencia;\n        destinoTransferencia.transfer(msg.value);\n        emit TransferirMonto(\n            destinoTransferencia,\n            origenTransferencia,\n            msg.value\n        );\n        return true;\n    }\n\n    function verBalanceCuenta() public payable returns (uint256) {\n        return origenTransferencia.balance;\n    }\n\n    function contractName() public pure returns (string memory) {\n        return \"Hirendra\";\n    }\n\n    function hello() public pure returns (string memory) {\n        return \"Hello Students\";\n    }\n\n    function addClass(string memory className, uint256 classId) public {\n        classes[classCount] = classInfo(className, classId);\n        allClasses.push(classId);\n        classCount++;\n    }\n\n    function addStudent(\n        string memory name,\n        string memory batch,\n        string memory rollno,\n        string memory email,\n        string memory father,\n        string memory mother,\n        string memory admission,\n        string memory college,\n        uint256 studentId,\n        uint256 classId\n    ) public {\n        allStudents.push(studentId);\n        studentInfos[studentCount] = studentInfo(\n            name,\n            batch,\n            rollno,\n            email,\n            father,\n            mother,\n            admission,\n            college,\n            classId,\n            studentId\n        );\n        studentCount++;\n    }\n\n    function getAllClasses() public view returns (classInfo[] memory) {\n        classInfo[] memory id = new classInfo[](classCount);\n        for (uint256 i = 0; i < classCount; i++) {\n            classInfo storage class = classes[i];\n            id[i] = class;\n        }\n        return id;\n    }\n\n    function getAllStudent() public view returns (studentInfo[] memory) {\n        studentInfo[] memory id = new studentInfo[](studentCount);\n        for (uint256 i = 0; i < studentCount; i++) {\n            studentInfo storage student = studentInfos[i];\n            id[i] = student;\n        }\n        return id;\n    }\n}\n",
  "sourcePath": "/home/torab/Web Projects/Blockchain/Blockchain-Based-Student-Result-Management-System/Contracts/contracts/StudentResult.sol",
  "compiler": {
    "name": "solc",
    "version": "0.8.11+commit.d7f03943.Emscripten.clang"
  },
  "schemaVersion": "3.4.7",
  "updatedAt": "2022-06-12T12:21:10.326Z",
  "networkType": "ethereum",
  "devdoc": {
    "kind": "dev",
    "methods": {},
    "version": 1
  },
  "userdoc": {
    "kind": "user",
    "methods": {},
    "version": 1
  }
}