{
  "contractName": "StudentResult",
  "abi": [
    {
      "inputs": [
        {
          "internalType": "uint256",
          "name": "",
          "type": "uint256"
        }
      ],
      "name": "allClasses",
      "outputs": [
        {
          "internalType": "uint256",
          "name": "",
          "type": "uint256"
        }
      ],
      "stateMutability": "view",
      "type": "function",
      "constant": true
    },
    {
      "inputs": [
        {
          "internalType": "uint256",
          "name": "",
          "type": "uint256"
        }
      ],
      "name": "allStudents",
      "outputs": [
        {
          "internalType": "uint256",
          "name": "",
          "type": "uint256"
        }
      ],
      "stateMutability": "view",
      "type": "function",
      "constant": true
    },
    {
      "inputs": [],
      "name": "hello",
      "outputs": [
        {
          "internalType": "string",
          "name": "",
          "type": "string"
        }
      ],
      "stateMutability": "pure",
      "type": "function",
      "constant": true
    },
    {
      "inputs": [
        {
          "internalType": "string",
          "name": "className",
          "type": "string"
        },
        {
          "internalType": "uint256",
          "name": "classId",
          "type": "uint256"
        }
      ],
      "name": "addClass",
      "outputs": [],
      "stateMutability": "nonpayable",
      "type": "function"
    },
    {
      "inputs": [
        {
          "internalType": "string",
          "name": "name",
          "type": "string"
        },
        {
          "internalType": "string",
          "name": "batch",
          "type": "string"
        },
        {
          "internalType": "string",
          "name": "rollno",
          "type": "string"
        },
        {
          "internalType": "string",
          "name": "semester",
          "type": "string"
        },
        {
          "internalType": "string",
          "name": "bigData",
          "type": "string"
        },
        {
          "internalType": "string",
          "name": "disasterManagement",
          "type": "string"
        },
        {
          "internalType": "uint256",
          "name": "studentId",
          "type": "uint256"
        },
        {
          "internalType": "uint256",
          "name": "classId",
          "type": "uint256"
        }
      ],
      "name": "addStudent",
      "outputs": [],
      "stateMutability": "nonpayable",
      "type": "function"
    },
    {
      "inputs": [],
      "name": "getAllClasses",
      "outputs": [
        {
          "components": [
            {
              "internalType": "string",
              "name": "className",
              "type": "string"
            },
            {
              "internalType": "uint256",
              "name": "classId",
              "type": "uint256"
            }
          ],
          "internalType": "struct StudentResult.classInfo[]",
          "name": "",
          "type": "tuple[]"
        }
      ],
      "stateMutability": "view",
      "type": "function",
      "constant": true
    },
    {
      "inputs": [],
      "name": "getAllStudent",
      "outputs": [
        {
          "components": [
            {
              "internalType": "string",
              "name": "name",
              "type": "string"
            },
            {
              "internalType": "string",
              "name": "batch",
              "type": "string"
            },
            {
              "internalType": "string",
              "name": "rollno",
              "type": "string"
            },
            {
              "internalType": "string",
              "name": "semester",
              "type": "string"
            },
            {
              "internalType": "string",
              "name": "bigData",
              "type": "string"
            },
            {
              "internalType": "string",
              "name": "disasterManagement",
              "type": "string"
            },
            {
              "internalType": "uint256",
              "name": "classId",
              "type": "uint256"
            },
            {
              "internalType": "uint256",
              "name": "studentId",
              "type": "uint256"
            }
          ],
          "internalType": "struct StudentResult.studentInfo[]",
          "name": "",
          "type": "tuple[]"
        }
      ],
      "stateMutability": "view",
      "type": "function",
      "constant": true
    }
  ],
  "bytecode": "0x60806040526000600255600060035534801561001a57600080fd5b506113568061002a6000396000f3fe608060405234801561001057600080fd5b506004361061007d5760003560e01c8063862322551161005b57806386232255146100dc578063b319b5aa146100f8578063e6a852cc14610114578063ea2f2778146101445761007d565b8063133d04601461008257806319ff1d21146100a05780636bda75dd146100be575b600080fd5b61008a610174565b6040516100979190610ce3565b60405180910390f35b6100a86105bb565b6040516100b59190610d4f565b60405180910390f35b6100c66105f8565b6040516100d39190610e70565b60405180910390f35b6100f660048036038101906100f19190611007565b61075a565b005b610112600480360381019061010d9190611165565b6108b9565b005b61012e600480360381019061012991906111c1565b610952565b60405161013b91906111fd565b60405180910390f35b61015e600480360381019061015991906111c1565b610976565b60405161016b91906111fd565b60405180910390f35b6060600060025467ffffffffffffffff81111561019457610193610eb0565b5b6040519080825280602002602001820160405280156101cd57816020015b6101ba61099a565b8152602001906001900390816101b25790505b50905060005b6002548110156105b3576000600560008381526020019081526020016000209050806040518061010001604052908160008201805461021190611247565b80601f016020809104026020016040519081016040528092919081815260200182805461023d90611247565b801561028a5780601f1061025f5761010080835404028352916020019161028a565b820191906000526020600020905b81548152906001019060200180831161026d57829003601f168201915b505050505081526020016001820180546102a390611247565b80601f01602080910402602001604051908101604052809291908181526020018280546102cf90611247565b801561031c5780601f106102f15761010080835404028352916020019161031c565b820191906000526020600020905b8154815290600101906020018083116102ff57829003601f168201915b5050505050815260200160028201805461033590611247565b80601f016020809104026020016040519081016040528092919081815260200182805461036190611247565b80156103ae5780601f10610383576101008083540402835291602001916103ae565b820191906000526020600020905b81548152906001019060200180831161039157829003601f168201915b505050505081526020016003820180546103c790611247565b80601f01602080910402602001604051908101604052809291908181526020018280546103f390611247565b80156104405780601f1061041557610100808354040283529160200191610440565b820191906000526020600020905b81548152906001019060200180831161042357829003601f168201915b5050505050815260200160048201805461045990611247565b80601f016020809104026020016040519081016040528092919081815260200182805461048590611247565b80156104d25780601f106104a7576101008083540402835291602001916104d2565b820191906000526020600020905b8154815290600101906020018083116104b557829003601f168201915b505050505081526020016005820180546104eb90611247565b80601f016020809104026020016040519081016040528092919081815260200182805461051790611247565b80156105645780601f1061053957610100808354040283529160200191610564565b820191906000526020600020905b81548152906001019060200180831161054757829003601f168201915b505050505081526020016006820154815260200160078201548152505083838151811061059457610593611279565b5b60200260200101819052505080806105ab906112d7565b9150506101d3565b508091505090565b60606040518060400160405280600e81526020017f48656c6c6f2053747564656e7473000000000000000000000000000000000000815250905090565b6060600060035467ffffffffffffffff81111561061857610617610eb0565b5b60405190808252806020026020018201604052801561065157816020015b61063e6109df565b8152602001906001900390816106365790505b50905060005b6003548110156107525760006004600083815260200190815260200160002090508060405180604001604052908160008201805461069490611247565b80601f01602080910402602001604051908101604052809291908181526020018280546106c090611247565b801561070d5780601f106106e25761010080835404028352916020019161070d565b820191906000526020600020905b8154815290600101906020018083116106f057829003601f168201915b5050505050815260200160018201548152505083838151811061073357610732611279565b5b602002602001018190525050808061074a906112d7565b915050610657565b508091505090565b60018290806001815401808255809150506001900390600052602060002001600090919091909150556040518061010001604052808981526020018881526020018781526020018681526020018581526020018481526020018281526020018381525060056000600254815260200190815260200160002060008201518160000190805190602001906107ee9291906109f9565b50602082015181600101908051906020019061080b9291906109f9565b5060408201518160020190805190602001906108289291906109f9565b5060608201518160030190805190602001906108459291906109f9565b5060808201518160040190805190602001906108629291906109f9565b5060a082015181600501908051906020019061087f9291906109f9565b5060c0820151816006015560e08201518160070155905050600260008154809291906108aa906112d7565b91905055505050505050505050565b60405180604001604052808381526020018281525060046000600354815260200190815260200160002060008201518160000190805190602001906108ff9291906109f9565b5060208201518160010155905050600081908060018154018082558091505060019003906000526020600020016000909190919091505560036000815480929190610949906112d7565b91905055505050565b6001818154811061096257600080fd5b906000526020600020016000915090505481565b6000818154811061098657600080fd5b906000526020600020016000915090505481565b60405180610100016040528060608152602001606081526020016060815260200160608152602001606081526020016060815260200160008152602001600081525090565b604051806040016040528060608152602001600081525090565b828054610a0590611247565b90600052602060002090601f016020900481019282610a275760008555610a6e565b82601f10610a4057805160ff1916838001178555610a6e565b82800160010185558215610a6e579182015b82811115610a6d578251825591602001919060010190610a52565b5b509050610a7b9190610a7f565b5090565b5b80821115610a98576000816000905550600101610a80565b5090565b600081519050919050565b600082825260208201905092915050565b6000819050602082019050919050565b600081519050919050565b600082825260208201905092915050565b60005b83811015610b02578082015181840152602081019050610ae7565b83811115610b11576000848401525b50505050565b6000601f19601f8301169050919050565b6000610b3382610ac8565b610b3d8185610ad3565b9350610b4d818560208601610ae4565b610b5681610b17565b840191505092915050565b6000819050919050565b610b7481610b61565b82525050565b6000610100830160008301518482036000860152610b988282610b28565b91505060208301518482036020860152610bb28282610b28565b91505060408301518482036040860152610bcc8282610b28565b91505060608301518482036060860152610be68282610b28565b91505060808301518482036080860152610c008282610b28565b91505060a083015184820360a0860152610c1a8282610b28565b91505060c0830151610c2f60c0860182610b6b565b5060e0830151610c4260e0860182610b6b565b508091505092915050565b6000610c598383610b7a565b905092915050565b6000602082019050919050565b6000610c7982610a9c565b610c838185610aa7565b935083602082028501610c9585610ab8565b8060005b85811015610cd15784840389528151610cb28582610c4d565b9450610cbd83610c61565b925060208a01995050600181019050610c99565b50829750879550505050505092915050565b60006020820190508181036000830152610cfd8184610c6e565b905092915050565b600082825260208201905092915050565b6000610d2182610ac8565b610d2b8185610d05565b9350610d3b818560208601610ae4565b610d4481610b17565b840191505092915050565b60006020820190508181036000830152610d698184610d16565b905092915050565b600081519050919050565b600082825260208201905092915050565b6000819050602082019050919050565b60006040830160008301518482036000860152610dba8282610b28565b9150506020830151610dcf6020860182610b6b565b508091505092915050565b6000610de68383610d9d565b905092915050565b6000602082019050919050565b6000610e0682610d71565b610e108185610d7c565b935083602082028501610e2285610d8d565b8060005b85811015610e5e5784840389528151610e3f8582610dda565b9450610e4a83610dee565b925060208a01995050600181019050610e26565b50829750879550505050505092915050565b60006020820190508181036000830152610e8a8184610dfb565b905092915050565b6000604051905090565b600080fd5b600080fd5b600080fd5b600080fd5b7f4e487b7100000000000000000000000000000000000000000000000000000000600052604160045260246000fd5b610ee882610b17565b810181811067ffffffffffffffff82111715610f0757610f06610eb0565b5b80604052505050565b6000610f1a610e92565b9050610f268282610edf565b919050565b600067ffffffffffffffff821115610f4657610f45610eb0565b5b610f4f82610b17565b9050602081019050919050565b82818337600083830152505050565b6000610f7e610f7984610f2b565b610f10565b905082815260208101848484011115610f9a57610f99610eab565b5b610fa5848285610f5c565b509392505050565b600082601f830112610fc257610fc1610ea6565b5b8135610fd2848260208601610f6b565b91505092915050565b610fe481610b61565b8114610fef57600080fd5b50565b60008135905061100181610fdb565b92915050565b600080600080600080600080610100898b03121561102857611027610e9c565b5b600089013567ffffffffffffffff81111561104657611045610ea1565b5b6110528b828c01610fad565b985050602089013567ffffffffffffffff81111561107357611072610ea1565b5b61107f8b828c01610fad565b975050604089013567ffffffffffffffff8111156110a05761109f610ea1565b5b6110ac8b828c01610fad565b965050606089013567ffffffffffffffff8111156110cd576110cc610ea1565b5b6110d98b828c01610fad565b955050608089013567ffffffffffffffff8111156110fa576110f9610ea1565b5b6111068b828c01610fad565b94505060a089013567ffffffffffffffff81111561112757611126610ea1565b5b6111338b828c01610fad565b93505060c06111448b828c01610ff2565b92505060e06111558b828c01610ff2565b9150509295985092959890939650565b6000806040838503121561117c5761117b610e9c565b5b600083013567ffffffffffffffff81111561119a57611199610ea1565b5b6111a685828601610fad565b92505060206111b785828601610ff2565b9150509250929050565b6000602082840312156111d7576111d6610e9c565b5b60006111e584828501610ff2565b91505092915050565b6111f781610b61565b82525050565b600060208201905061121260008301846111ee565b92915050565b7f4e487b7100000000000000000000000000000000000000000000000000000000600052602260045260246000fd5b6000600282049050600182168061125f57607f821691505b6020821081141561127357611272611218565b5b50919050565b7f4e487b7100000000000000000000000000000000000000000000000000000000600052603260045260246000fd5b7f4e487b7100000000000000000000000000000000000000000000000000000000600052601160045260246000fd5b60006112e282610b61565b91507fffffffffffffffffffffffffffffffffffffffffffffffffffffffffffffffff821415611315576113146112a8565b5b60018201905091905056fea264697066735822122001854d16692deb622c4cb80002c446a2780bac3bf422f464a6d6d37db4496fcf64736f6c634300080b0033",
  "immutableReferences": {},
  "source": "// SPDX-License-Identifier: MIT\npragma solidity >=0.4.22 <0.9.0;\n\ncontract StudentResult {\n    uint256[] public allClasses;\n\n    uint256[] public allStudents;\n\n    uint256 studentCount = 0;\n\n    uint256 classCount = 0;\n\n    struct classInfo {\n        string className;\n        uint256 classId;\n    }\n\n    struct studentInfo {\n        string name;\n        string batch;\n        string rollno;\n        string semester;\n        string bigData;\n        string disasterManagement;\n        uint256 classId;\n        uint256 studentId;\n    }\n\n    mapping(uint256 => classInfo) classes;\n\n    mapping(uint256 => studentInfo) studentInfos;\n\n    function hello() public pure returns (string memory) {\n        return \"Hello Students\";\n    }\n\n    function addClass(string memory className, uint256 classId) public {\n        classes[classCount] = classInfo(className, classId);\n        allClasses.push(classId);\n        classCount++;\n    }\n\n    function addStudent(\n        string memory name,\n        string memory batch,\n        string memory rollno,\n        string memory semester,\n        string memory bigData,\n        string memory disasterManagement,\n        uint256 studentId,\n        uint256 classId\n    ) public {\n        allStudents.push(studentId);\n        studentInfos[studentCount] = studentInfo(\n            name,\n            batch,\n            rollno,\n            semester,\n            bigData,\n            disasterManagement,\n            classId,\n            studentId\n        );\n        studentCount++;\n    }\n\n    function getAllClasses() public view returns (classInfo[] memory) {\n         classInfo[] memory id = new classInfo[](classCount);\n        for (uint256 i = 0; i < classCount; i++) {\n            classInfo storage class = classes[i];\n            id[i] = class;\n        }\n        return id;\n    }\n\n    function getAllStudent() public view returns (studentInfo[] memory) {\n        studentInfo[] memory id = new studentInfo[](studentCount);\n        for (uint256 i = 0; i < studentCount; i++) {\n            studentInfo storage student = studentInfos[i];\n            id[i] = student;\n        }\n        return id;\n    }\n}\n",
  "sourcePath": "/home/hirendra/Web Projects/Other/Blockchain/Blockchain Based Student Result Management System/Blockchain-Based-Student-Result-Management-System/Contracts/contracts/StudentResult.sol",
  "compiler": {
    "name": "solc",
    "version": "0.8.11+commit.d7f03943.Emscripten.clang"
  },
  "schemaVersion": "3.4.4",
  "updatedAt": "2022-03-19T12:21:56.905Z",
  "networkType": "ethereum",
  "devdoc": {
    "kind": "dev",
    "methods": {},
    "version": 1
  },
  "userdoc": {
    "kind": "user",
    "methods": {},
    "version": 1
  }
}