{
  "contractName": "StudentResult",
  "abi": [
    {
      "inputs": [],
      "stateMutability": "nonpayable",
      "type": "constructor"
    },
    {
      "anonymous": false,
      "inputs": [
        {
          "indexed": false,
          "internalType": "address payable",
          "name": "_destinoTransferencia",
          "type": "address"
        },
        {
          "indexed": false,
          "internalType": "address",
          "name": "_origenTransferencia",
          "type": "address"
        },
        {
          "indexed": false,
          "internalType": "uint256",
          "name": "montoTransferencia",
          "type": "uint256"
        }
      ],
      "name": "TransferirMonto",
      "type": "event"
    },
    {
      "inputs": [
        {
          "internalType": "uint256",
          "name": "",
          "type": "uint256"
        }
      ],
      "name": "allClasses",
      "outputs": [
        {
          "internalType": "uint256",
          "name": "",
          "type": "uint256"
        }
      ],
      "stateMutability": "view",
      "type": "function",
      "constant": true
    },
    {
      "inputs": [
        {
          "internalType": "uint256",
          "name": "",
          "type": "uint256"
        }
      ],
      "name": "allStudents",
      "outputs": [
        {
          "internalType": "uint256",
          "name": "",
          "type": "uint256"
        }
      ],
      "stateMutability": "view",
      "type": "function",
      "constant": true
    },
    {
      "inputs": [
        {
          "internalType": "address payable",
          "name": "_destinoTransferencia",
          "type": "address"
        }
      ],
      "name": "nuevaTransaccion",
      "outputs": [
        {
          "internalType": "bool",
          "name": "",
          "type": "bool"
        }
      ],
      "stateMutability": "payable",
      "type": "function",
      "payable": true
    },
    {
      "inputs": [],
      "name": "verBalanceCuenta",
      "outputs": [
        {
          "internalType": "uint256",
          "name": "",
          "type": "uint256"
        }
      ],
      "stateMutability": "payable",
      "type": "function",
      "payable": true
    },
    {
      "inputs": [],
      "name": "contractName",
      "outputs": [
        {
          "internalType": "string",
          "name": "",
          "type": "string"
        }
      ],
      "stateMutability": "pure",
      "type": "function",
      "constant": true
    },
    {
      "inputs": [],
      "name": "hello",
      "outputs": [
        {
          "internalType": "string",
          "name": "",
          "type": "string"
        }
      ],
      "stateMutability": "pure",
      "type": "function",
      "constant": true
    },
    {
      "inputs": [
        {
          "internalType": "string",
          "name": "className",
          "type": "string"
        },
        {
          "internalType": "uint256",
          "name": "classId",
          "type": "uint256"
        }
      ],
      "name": "addClass",
      "outputs": [],
      "stateMutability": "nonpayable",
      "type": "function"
    },
    {
      "inputs": [
        {
          "internalType": "string",
          "name": "name",
          "type": "string"
        },
        {
          "internalType": "string",
          "name": "batch",
          "type": "string"
        },
        {
          "internalType": "string",
          "name": "rollno",
          "type": "string"
        },
        {
          "internalType": "string",
          "name": "email",
          "type": "string"
        },
        {
          "internalType": "string",
          "name": "father",
          "type": "string"
        },
        {
          "internalType": "string",
          "name": "mother",
          "type": "string"
        },
        {
          "internalType": "string",
          "name": "admission",
          "type": "string"
        },
        {
          "internalType": "string",
          "name": "college",
          "type": "string"
        },
        {
          "internalType": "uint256",
          "name": "studentId",
          "type": "uint256"
        },
        {
          "internalType": "uint256",
          "name": "classId",
          "type": "uint256"
        }
      ],
      "name": "addStudent",
      "outputs": [],
      "stateMutability": "nonpayable",
      "type": "function"
    },
    {
      "inputs": [],
      "name": "getAllClasses",
      "outputs": [
        {
          "components": [
            {
              "internalType": "string",
              "name": "className",
              "type": "string"
            },
            {
              "internalType": "uint256",
              "name": "classId",
              "type": "uint256"
            }
          ],
          "internalType": "struct StudentResult.classInfo[]",
          "name": "",
          "type": "tuple[]"
        }
      ],
      "stateMutability": "view",
      "type": "function",
      "constant": true
    },
    {
      "inputs": [],
      "name": "getAllStudent",
      "outputs": [
        {
          "components": [
            {
              "internalType": "string",
              "name": "name",
              "type": "string"
            },
            {
              "internalType": "string",
              "name": "batch",
              "type": "string"
            },
            {
              "internalType": "string",
              "name": "rollno",
              "type": "string"
            },
            {
              "internalType": "string",
              "name": "email",
              "type": "string"
            },
            {
              "internalType": "string",
              "name": "father",
              "type": "string"
            },
            {
              "internalType": "string",
              "name": "mother",
              "type": "string"
            },
            {
              "internalType": "string",
              "name": "admission",
              "type": "string"
            },
            {
              "internalType": "string",
              "name": "college",
              "type": "string"
            },
            {
              "internalType": "uint256",
              "name": "classId",
              "type": "uint256"
            },
            {
              "internalType": "uint256",
              "name": "studentId",
              "type": "uint256"
            }
          ],
          "internalType": "struct StudentResult.studentInfo[]",
          "name": "",
          "type": "tuple[]"
        }
      ],
      "stateMutability": "view",
      "type": "function",
      "constant": true
    }
  ],
  "bytecode": "0x60806040526000600255600060035534801561001a57600080fd5b5060068054600160a060020a0319163317905561127f8061003c6000396000f3fe6080604052600436106100ae576000357c010000000000000000000000000000000000000000000000000000000090048063b319b5aa11610076578063b319b5aa146101be578063b7e6a2e8146101e0578063e005f92014610200578063e6a852cc14610223578063ea2f27781461024357600080fd5b8063133d0460146100b357806319ff1d21146100de5780636bda75dd1461012d57806372e713ac1461014f57806375d0c0dc14610178575b600080fd5b3480156100bf57600080fd5b506100c8610263565b6040516100d59190610d82565b60405180910390f35b3480156100ea57600080fd5b5060408051808201909152600e81527f48656c6c6f2053747564656e747300000000000000000000000000000000000060208201525b6040516100d59190610ebe565b34801561013957600080fd5b50610142610812565b6040516100d59190610ed8565b60065473ffffffffffffffffffffffffffffffffffffffff16315b6040519081526020016100d5565b34801561018457600080fd5b5060408051808201909152600881527f486972656e6472610000000000000000000000000000000000000000000000006020820152610120565b3480156101ca57600080fd5b506101de6101d9366004610fe3565b610970565b005b3480156101ec57600080fd5b506101de6101fb366004611028565b610a01565b61021361020e36600461117d565b610b9f565b60405190151581526020016100d5565b34801561022f57600080fd5b5061016a61023e3660046111b3565b610c6b565b34801561024f57600080fd5b5061016a61025e3660046111b3565b610c8c565b6060600060025467ffffffffffffffff81111561028257610282610f3d565b60405190808252806020026020018201604052801561030957816020015b6102f6604051806101400160405280606081526020016060815260200160608152602001606081526020016060815260200160608152602001606081526020016060815260200160008152602001600081525090565b8152602001906001900390816102a05790505b50905060005b60025481101561080c5760008181526005602052604090819020815161014081019092528054909190829082908290610347906111cc565b80601f0160208091040260200160405190810160405280929190818152602001828054610373906111cc565b80156103c05780601f10610395576101008083540402835291602001916103c0565b820191906000526020600020905b8154815290600101906020018083116103a357829003601f168201915b505050505081526020016001820180546103d9906111cc565b80601f0160208091040260200160405190810160405280929190818152602001828054610405906111cc565b80156104525780601f1061042757610100808354040283529160200191610452565b820191906000526020600020905b81548152906001019060200180831161043557829003601f168201915b5050505050815260200160028201805461046b906111cc565b80601f0160208091040260200160405190810160405280929190818152602001828054610497906111cc565b80156104e45780601f106104b9576101008083540402835291602001916104e4565b820191906000526020600020905b8154815290600101906020018083116104c757829003601f168201915b505050505081526020016003820180546104fd906111cc565b80601f0160208091040260200160405190810160405280929190818152602001828054610529906111cc565b80156105765780601f1061054b57610100808354040283529160200191610576565b820191906000526020600020905b81548152906001019060200180831161055957829003601f168201915b5050505050815260200160048201805461058f906111cc565b80601f01602080910402602001604051908101604052809291908181526020018280546105bb906111cc565b80156106085780601f106105dd57610100808354040283529160200191610608565b820191906000526020600020905b8154815290600101906020018083116105eb57829003601f168201915b50505050508152602001600582018054610621906111cc565b80601f016020809104026020016040519081016040528092919081815260200182805461064d906111cc565b801561069a5780601f1061066f5761010080835404028352916020019161069a565b820191906000526020600020905b81548152906001019060200180831161067d57829003601f168201915b505050505081526020016006820180546106b3906111cc565b80601f01602080910402602001604051908101604052809291908181526020018280546106df906111cc565b801561072c5780601f106107015761010080835404028352916020019161072c565b820191906000526020600020905b81548152906001019060200180831161070f57829003601f168201915b50505050508152602001600782018054610745906111cc565b80601f0160208091040260200160405190810160405280929190818152602001828054610771906111cc565b80156107be5780601f10610793576101008083540402835291602001916107be565b820191906000526020600020905b8154815290600101906020018083116107a157829003601f168201915b50505050508152602001600882015481526020016009820154815250508383815181106107ed576107ed611204565b60200260200101819052505080806108049061121d565b91505061030f565b50919050565b6060600060035467ffffffffffffffff81111561083157610831610f3d565b60405190808252806020026020018201604052801561087757816020015b60408051808201909152606081526000602082015281526020019060019003908161084f5790505b50905060005b60035481101561080c5760008181526004602052604090819020815180830190925280549091908290829082906108b3906111cc565b80601f01602080910402602001604051908101604052809291908181526020018280546108df906111cc565b801561092c5780601f106109015761010080835404028352916020019161092c565b820191906000526020600020905b81548152906001019060200180831161090f57829003601f168201915b5050505050815260200160018201548152505083838151811061095157610951611204565b60200260200101819052505080806109689061121d565b91505061087d565b60408051808201825283815260208082018490526003546000908152600482529290922081518051929391926109a99284920190610c9c565b50602091909101516001918201556000805491820181558080527f290decd9548b62a8d60345a988386fc84ba6bc95484008f6362f93160ef3e56390910182905560038054916109f88361121d565b91905055505050565b600180548082019091557fb10e2d527612073b26eecdfd717e6a320cf44b4afac2b0732d9fcbe2b7fa0cf60182905560408051610140810182528b815260208181018c90528183018b9052606082018a90526080820189905260a0820188905260c0820187905260e0820186905261010082018490526101208201859052600254600090815260058252929092208151805192939192610aa49284920190610c9c565b506020828101518051610abd9260018501920190610c9c565b5060408201518051610ad9916002840191602090910190610c9c565b5060608201518051610af5916003840191602090910190610c9c565b5060808201518051610b11916004840191602090910190610c9c565b5060a08201518051610b2d916005840191602090910190610c9c565b5060c08201518051610b49916006840191602090910190610c9c565b5060e08201518051610b65916007840191602090910190610c9c565b5061010082015160088201556101209091015160099091015560028054906000610b8e8361121d565b919050555050505050505050505050565b6007805473ffffffffffffffffffffffffffffffffffffffff831673ffffffffffffffffffffffffffffffffffffffff199091168117909155604051600091903480156108fc029184818181858888f19350505050158015610c05573d6000803e3d6000fd5b506007546006546040805173ffffffffffffffffffffffffffffffffffffffff93841681529290911660208301523482820152517ffc1ff50638c53d8cb428005e102107cffd2da1840abf5289da2981b8e99c64209181900360600190a1506001919050565b60018181548110610c7b57600080fd5b600091825260209091200154905081565b60008181548110610c7b57600080fd5b828054610ca8906111cc565b90600052602060002090601f016020900481019282610cca5760008555610d10565b82601f10610ce357805160ff1916838001178555610d10565b82800160010185558215610d10579182015b82811115610d10578251825591602001919060010190610cf5565b50610d1c929150610d20565b5090565b5b80821115610d1c5760008155600101610d21565b6000815180845260005b81811015610d5b57602081850181015186830182015201610d3f565b81811115610d6d576000602083870101525b50601f01601f19169290920160200192915050565b60208082528251828201819052600091906040908185019080840286018301878501865b83811015610eb057603f1989840301855281516101408151818652610dcd82870182610d35565b915050888201518582038a870152610de58282610d35565b9150508782015185820389870152610dfd8282610d35565b91505060608083015186830382880152610e178382610d35565b9250505060808083015186830382880152610e328382610d35565b9250505060a08083015186830382880152610e4d8382610d35565b9250505060c08083015186830382880152610e688382610d35565b9250505060e08083015186830382880152610e838382610d35565b61010085810151908901526101209485015194909701939093525050509386019390860190600101610da6565b509098975050505050505050565b602081526000610ed16020830184610d35565b9392505050565b60208082528251828201819052600091906040908185019080840286018301878501865b83811015610eb057888303603f1901855281518051878552610f2088860182610d35565b918901519489019490945294870194925090860190600101610efc565b60e060020a634e487b7102600052604160045260246000fd5b600082601f830112610f6757600080fd5b813567ffffffffffffffff80821115610f8257610f82610f3d565b604051601f8301601f19908116603f01168101908282118183101715610faa57610faa610f3d565b81604052838152866020858801011115610fc357600080fd5b836020870160208301376000602085830101528094505050505092915050565b60008060408385031215610ff657600080fd5b823567ffffffffffffffff81111561100d57600080fd5b61101985828601610f56565b95602094909401359450505050565b6000806000806000806000806000806101408b8d03121561104857600080fd5b8a3567ffffffffffffffff8082111561106057600080fd5b61106c8e838f01610f56565b9b5060208d013591508082111561108257600080fd5b61108e8e838f01610f56565b9a5060408d01359150808211156110a457600080fd5b6110b08e838f01610f56565b995060608d01359150808211156110c657600080fd5b6110d28e838f01610f56565b985060808d01359150808211156110e857600080fd5b6110f48e838f01610f56565b975060a08d013591508082111561110a57600080fd5b6111168e838f01610f56565b965060c08d013591508082111561112c57600080fd5b6111388e838f01610f56565b955060e08d013591508082111561114e57600080fd5b5061115b8d828e01610f56565b9350506101008b013591506101208b013590509295989b9194979a5092959850565b60006020828403121561118f57600080fd5b813573ffffffffffffffffffffffffffffffffffffffff81168114610ed157600080fd5b6000602082840312156111c557600080fd5b5035919050565b6002810460018216806111e057607f821691505b6020821081141561080c5760e060020a634e487b7102600052602260045260246000fd5b60e060020a634e487b7102600052603260045260246000fd5b60006000198214156112425760e060020a634e487b7102600052601160045260246000fd5b506001019056fea264697066735822122087396e660a323002a278746308c0bde9d64161d151e036d1b43b8124b02ee4fa64736f6c634300080b0033",
  "immutableReferences": {},
  "source": "// SPDX-License-Identifier: MIT\npragma solidity >=0.4.22 <0.9.0;\npragma experimental ABIEncoderV2;\n\ncontract StudentResult {\n    uint256[] public allClasses;\n\n    uint256[] public allStudents;\n\n    // uint256[] public firstSem;\n\n    // uint256[] public secondSem;\n    \n    // uint256[] public thirdSem;\n    \n    // uint256[] public fourthSem;\n    \n    // uint256[] public fifthSem;\n    \n    // uint256[] public sixthSem;\n    \n    // uint256[] public seventhSem;\n    \n    // uint256[] public eighthSem;\n\n    uint256 studentCount = 0;\n\n    uint256 classCount = 0;\n\n    // uint256 firstSemCount = 0;\n\n    // uint256 secondSemCount = 0;\n\n    // uint256 thirdSemCount = 0;\n\n    // uint256 fourthSemCount = 0;\n\n    // uint256 fifthSemCount = 0;\n\n    // uint256 sixthSemCount = 0;\n\n    // uint256 seventhSemCount = 0;\n\n    // uint256 eighthSemCount = 0;\n\n    struct classInfo {\n        string className;\n        uint256 classId;\n    }\n\n    struct studentInfo {\n        string name;\n        string batch;\n        string rollno;\n        string email;\n        string father;\n        string mother;\n        string admission;\n        string college;\n        uint256 classId;\n        uint256 studentId;\n    }\n\n    // struct firstSemInfo {\n    //     string mathemetics;\n    //     string chemistry;\n    //     string humanValues;\n    //     string programming;\n    //     string civil;\n    //     string chemistryLab;\n    //     string humanValueActivities;\n    //     string cpLab;\n    //     string civilLab;\n    //     string camd;\n    //     string sodeca;\n    //     uint256 studentId;\n    // }\n\n    // struct secondSemInfo {\n    //     string mathemetics;\n    //     string physics;\n    //     string communication;\n    //     string mechanical;\n    //     string electrical;\n    //     string physicsLab;\n    //     string languageLab;\n    //     string manufacturing;\n    //     string electricalLab;\n    //     string caeg;\n    //     string sodeca;\n    //     uint256 studentId;\n    // }\n\n    // struct thirdSemInfo {\n    //     string mathemetics;\n    //     string economics;\n    //     string electronics;\n    //     string dsa;\n    //     string oop;\n    //     string software;\n    //     string dsaLab;\n    //     string oopLab;\n    //     string softwareLab;\n    //     string electronicsLab;\n    //     string training;\n    //     uint256 studentId;\n    // }\n\n    // struct fourthSemInfo {\n    //     string mathemetics;\n    //     string communication;\n    //     string microprocessor;\n    //     string dbms;\n    //     string toc;\n    //     string networks;\n    //     string mpLab;\n    //     string dbmsLab;\n    //     string npLab;\n    //     string linux;\n    //     string javaLab;\n    //     uint256 studentId;\n    // }\n\n    // struct fifthSemInfo {\n    //     string itc;\n    //     string compiler;\n    //     string operating;\n    //     string graphics;\n    //     string algo;\n    //     string hci;\n    //     string graphicsLab;\n    //     string compilerLab;\n    //     string algoLab;\n    //     string javaLab;\n    //     string training;\n    //     uint256 studentId;\n    // }\n\n    // struct sixthSemInfo {\n    //     string image;\n    //     string machine;\n    //     string security;\n    //     string cao;\n    //     string ai;\n    //     string cloud;\n    //     string distributed;\n    //     string imageLab;\n    //     string machineLab;\n    //     string pythonLab;\n    //     string aapLab;\n    //     uint256 studentId;\n    // }\n\n    // struct seventhSemInfo {\n    //     string iot;\n    //     string eedm;\n    //     string iotLab;\n    //     string aLab;\n    //     string sodeca;\n    //     uint256 studentId;\n    // }\n\n    // struct eighthSemInfo {\n    //     string bda;\n    //     string dm;\n    //     string stvLab;\n    //     string bdaLab;\n    //     string training;\n    //     uint256 studentId;\n    // }\n\n    mapping(uint256 => classInfo) classes;\n\n    mapping(uint256 => studentInfo) studentInfos;\n\n    // mapping(uint256 => firstSemInfo) firstSemMap;\n\n    // mapping(uint256 => secondSemInfo) secondSemMap;\n\n    // mapping(uint256 => thirdSemInfo) thirdSemMap;\n\n    // mapping(uint256 => fourthSemInfo) fourthSemMap;\n\n    // mapping(uint256 => fifthSemInfo) fifthSemMap;\n\n    // mapping(uint256 => sixthSemInfo) sixthSemMap;\n\n    // mapping(uint256 => seventhSemInfo) seventhSemMap;\n\n    // mapping(uint256 => eighthSemInfo) eighthSemMap;\n\n    address origenTransferencia;\n    address payable destinoTransferencia;\n    uint256 montoTransferencia;\n\n    constructor() {\n        origenTransferencia = msg.sender;\n    }\n\n    event TransferirMonto(\n        address payable _destinoTransferencia,\n        address _origenTransferencia,\n        uint256 montoTransferencia\n    );\n\n    function nuevaTransaccion(address payable _destinoTransferencia)\n        public\n        payable\n        returns (bool)\n    {\n        destinoTransferencia = _destinoTransferencia;\n        destinoTransferencia.transfer(msg.value);\n        emit TransferirMonto(\n            destinoTransferencia,\n            origenTransferencia,\n            msg.value\n        );\n        return true;\n    }\n\n    function verBalanceCuenta() public payable returns (uint256) {\n        return origenTransferencia.balance;\n    }\n\n    function contractName() public pure returns (string memory) {\n        return \"Hirendra\";\n    }\n\n    function hello() public pure returns (string memory) {\n        return \"Hello Students\";\n    }\n\n    function addClass(string memory className, uint256 classId) public {\n        classes[classCount] = classInfo(className, classId);\n        allClasses.push(classId);\n        classCount++;\n    }\n\n    function addStudent(\n        string memory name,\n        string memory batch,\n        string memory rollno,\n        string memory email,\n        string memory father,\n        string memory mother,\n        string memory admission,\n        string memory college,\n        uint256 studentId,\n        uint256 classId\n    ) public {\n        allStudents.push(studentId);\n        studentInfos[studentCount] = studentInfo(\n            name,\n            batch,\n            rollno,\n            email,\n            father,\n            mother,\n            admission,\n            college,\n            classId,\n            studentId\n        );\n        studentCount++;\n    }\n\n    function getAllClasses() public view returns (classInfo[] memory) {\n        classInfo[] memory id = new classInfo[](classCount);\n        for (uint256 i = 0; i < classCount; i++) {\n            classInfo storage class = classes[i];\n            id[i] = class;\n        }\n        return id;\n    }\n\n    function getAllStudent() public view returns (studentInfo[] memory) {\n        studentInfo[] memory id = new studentInfo[](studentCount);\n        for (uint256 i = 0; i < studentCount; i++) {\n            studentInfo storage student = studentInfos[i];\n            id[i] = student;\n        }\n        return id;\n    }\n\n    // function addFirstSemesterInfo(\n    //     string memory mathemetics,\n    //     string memory chemistry,\n    //     string memory humanValues,\n    //     string memory programming,\n    //     string memory civil,\n    //     string memory chemistryLab,\n    //     string memory humanValueActivities,\n    //     string memory cpLab,\n    //     string memory civilLab,\n    //     string memory camd,\n    //     string memory sodeca,\n    //     uint256 studentId\n    // ) public {\n    //     firstSem.push(studentId);\n    //     firstSemMap[firstSemCount] = firstSemInfo(\n    //     mathemetics,\n    //     chemistry,\n    //     humanValues,\n    //     programming,\n    //     civil,\n    //     chemistryLab,\n    //     humanValueActivities,\n    //     cpLab,\n    //     civilLab,\n    //     camd,\n    //     sodeca,\n    //     studentId\n    //     );\n    //     firstSemCount++;\n    // }\n\n    // function addSecondSemesterInfo(\n    //     string memory mathemetics,\n    //     string memory physics,\n    //     string memory communication,\n    //     string memory mechanical,\n    //     string memory electrical,\n    //     string memory physicsLab,\n    //     string memory languageLab,\n    //     string memory manufacturing,\n    //     string memory electricalLab,\n    //     string memory caeg,\n    //     string memory sodeca,\n    //     uint256 studentId\n    // ) public {\n    //     secondSem.push(studentId);\n    //     secondSemMap[secondSemCount] = secondSemInfo(\n    //     mathemetics,\n    //     physics,\n    //     communication,\n    //     mechanical,\n    //     electrical,\n    //     physicsLab,\n    //     languageLab,\n    //     manufacturing,\n    //     electricalLab,\n    //     caeg,\n    //     sodeca,\n    //     studentId\n    //     );\n    //     secondSemCount++;\n    // }\n\n    // function addThirdSemesterInfo(\n    //     string memory mathemetics,\n    //     string memory economics,\n    //     string memory electronics,\n    //     string memory dsa,\n    //     string memory oop,\n    //     string memory software,\n    //     string memory dsaLab,\n    //     string memory oopLab,\n    //     string memory softwareLab,\n    //     string memory electronicsLab,\n    //     string memory training,\n    //     uint256 studentId\n    // ) public {\n    //     thirdSem.push(studentId);\n    //     thirdSemMap[thirdSemCount] = thirdSemInfo(\n    //     mathemetics,\n    //     economics,\n    //     electronics,\n    //     dsa,\n    //     oop,\n    //     software,\n    //     dsaLab,\n    //     oopLab,\n    //     softwareLab,\n    //     electronicsLab,\n    //     training,\n    //     studentId\n    //     );\n    //     thirdSemCount++;\n    // }\n\n    // function addFourthSemesterInfo(\n    //     string memory mathemetics,\n    //     string memory communication,\n    //     string memory microprocessor,\n    //     string memory dbms,\n    //     string memory toc,\n    //     string memory networks,\n    //     string memory mpLab,\n    //     string memory dbmsLab,\n    //     string memory npLab,\n    //     string memory linux,\n    //     string memory javaLab,\n    //     uint256 studentId\n    // ) public {\n    //     fourthSem.push(studentId);\n    //     fourthSemMap[fourthSemCount] = fourthSemInfo(\n    //     mathemetics,\n    //     communication,\n    //     microprocessor,\n    //     dbms,\n    //     toc,\n    //     networks,\n    //     mpLab,\n    //     dbmsLab,\n    //     npLab,\n    //     linux,\n    //     javaLab,\n    //     studentId\n    //     );\n    //     fourthSemCount++;\n    // }\n\n    // function addFiveSemesterInfo(\n    //     string memory itc,\n    //     string memory compiler,\n    //     string memory operating,\n    //     string memory graphics,\n    //     string memory algo,\n    //     string memory hci,\n    //     string memory graphicsLab,\n    //     string memory compilerLab,\n    //     string memory algoLab,\n    //     string memory javaLab,\n    //     string memory training,\n    //     uint256 studentId\n    // ) public {\n    //     fifthSem.push(studentId);\n    //     fifthSemMap[fifthSemCount] = fifthSemInfo(\n    //     itc,\n    //     compiler,\n    //     operating,\n    //     graphics,\n    //     algo,\n    //     hci,\n    //     graphicsLab,\n    //     compilerLab,\n    //     algoLab,\n    //     javaLab,\n    //     training,\n    //     studentId\n    //     );\n    //     fifthSemCount++;\n    // }\n\n    // function addSixSemesterInfo(\n    //     string memory image,\n    //     string memory machine,\n    //     string memory security,\n    //     string memory cao,\n    //     string memory ai,\n    //     string memory cloud,\n    //     string memory distributed,\n    //     string memory imageLab,\n    //     string memory machineLab,\n    //     string memory pythonLab,\n    //     string memory aapLab,\n    //     uint256 studentId\n    // ) public {\n    //     sixthSem.push(studentId);\n    //     sixthSemMap[sixthSemCount] = sixthSemInfo(\n    //     image,\n    //     machine,\n    //     security,\n    //     cao,\n    //     ai,\n    //     cloud,\n    //     distributed,\n    //     imageLab,\n    //     machineLab,\n    //     pythonLab,\n    //     aapLab,\n    //     studentId\n    //     );\n    //     sixthSemCount++;\n    // }\n\n    // function addSevenSemesterInfo(\n    //     string memory iot,\n    //     string memory eedm,\n    //     string memory iotLab,\n    //     string memory aLab,\n    //     string memory sodeca,\n    //     uint256 studentId\n    // ) public {\n    //     seventhSem.push(studentId);\n    //     seventhSemMap[seventhSemCount] = seventhSemInfo(\n    //     iot,\n    //     eedm,\n    //     iotLab,\n    //     aLab,\n    //     sodeca,\n    //     studentId\n    //     );\n    //     seventhSemCount++;\n    // }\n\n    // function addEightSemesterInfo(\n    //     string memory bda,\n    //     string memory dm,\n    //     string memory stvLab,\n    //     string memory bdaLab,\n    //     string memory training,\n    //     uint256 studentId\n    // ) public {\n    //     eighthSem.push(studentId);\n    //     eighthSemMap[eighthSemCount] = eighthSemInfo(\n    //     bda,\n    //     dm,\n    //     stvLab,\n    //     bdaLab,\n    //     training,\n    //     studentId\n    //     );\n    //     eighthSemCount++;\n    // }\n\n    // function getFirstSemester() public view returns (firstSemInfo[] memory) {\n    //     firstSemInfo[] memory id = new firstSemInfo[](firstSemCount);\n    //     for (uint256 i = 0; i < firstSemCount; i++) {\n    //         firstSemInfo storage sem = firstSemMap[i];\n    //         id[i] = sem;\n    //     }\n    //     return id;\n    // }\n\n    // function getSecondSemester() public view returns (secondSemInfo[] memory) {\n    //      secondSemInfo[] memory id = new secondSemInfo[](secondSemCount);\n    //     for (uint256 i = 0; i < secondSemCount; i++) {\n    //         secondSemInfo storage sem = secondSemMap[i];\n    //         id[i] = sem;\n    //     }\n    //     return id;\n    // }\n\n    // function getThirdSemester() public view returns (thirdSemInfo[] memory) {\n    //     thirdSemInfo[] memory id = new thirdSemInfo[](thirdSemCount);\n    //     for (uint256 i = 0; i < thirdSemCount; i++) {\n    //         thirdSemInfo storage sem = thirdSemMap[i];\n    //         id[i] = sem;\n    //     }\n    //     return id;\n    // }\n\n    // function getFourthSemester() public view returns (fourthSemInfo[] memory) {\n    //     fourthSemInfo[] memory id = new fourthSemInfo[](fourthSemCount);\n    //     for (uint256 i = 0; i < fourthSemCount; i++) {\n    //         fourthSemInfo storage sem = fourthSemMap[i];\n    //         id[i] = sem;\n    //     }\n    //     return id;\n    // }\n\n    // function getFiveSemester() public view returns (fifthSemInfo[] memory) {\n    //     fifthSemInfo[] memory id = new fifthSemInfo[](fifthSemCount);\n    //     for (uint256 i = 0; i < fifthSemCount; i++) {\n    //         fifthSemInfo storage sem = fifthSemMap[i];\n    //         id[i] = sem;\n    //     }\n    //     return id;\n    // }\n\n    // function getSixSemester() public view returns (sixthSemInfo[] memory) {\n    //     sixthSemInfo[] memory id = new sixthSemInfo[](sixthSemCount);\n    //     for (uint256 i = 0; i < sixthSemCount; i++) {\n    //         sixthSemInfo storage sem = sixthSemMap[i];\n    //         id[i] = sem;\n    //     }\n    //     return id;\n    // }\n\n    // function getSevenSemester() public view returns (seventhSemInfo[] memory) {\n    //     seventhSemInfo[] memory id = new seventhSemInfo[](seventhSemCount);\n    //     for (uint256 i = 0; i < seventhSemCount; i++) {\n    //         seventhSemInfo storage sem = seventhSemMap[i];\n    //         id[i] = sem;\n    //     }\n    //     return id;\n    // }\n\n    // function getEightSemester() public view returns (eighthSemInfo[] memory) {\n    //     eighthSemInfo[] memory id = new eighthSemInfo[](eighthSemCount);\n    //     for (uint256 i = 0; i < eighthSemCount; i++) {\n    //         eighthSemInfo storage sem = eighthSemMap[i];\n    //         id[i] = sem;\n    //     }\n    //     return id;\n    // }\n}\n",
  "sourcePath": "/home/torab/Web Projects/Blockchain/p2/Blockchain-Based-Student-Result-Management-System/Contracts/contracts/StudentResult.sol",
  "compiler": {
    "name": "solc",
    "version": "0.8.11+commit.d7f03943.Emscripten.clang"
  },
  "schemaVersion": "3.4.7",
  "updatedAt": "2022-06-13T20:59:13.427Z",
  "networkType": "ethereum",
  "devdoc": {
    "kind": "dev",
    "methods": {},
    "version": 1
  },
  "userdoc": {
    "kind": "user",
    "methods": {},
    "version": 1
  }
}