{
  "contractName": "StudentResult",
  "abi": [
    {
      "inputs": [
        {
          "internalType": "uint256",
          "name": "",
          "type": "uint256"
        }
      ],
      "name": "allClasses",
      "outputs": [
        {
          "internalType": "uint256",
          "name": "",
          "type": "uint256"
        }
      ],
      "stateMutability": "view",
      "type": "function",
      "constant": true
    },
    {
      "inputs": [
        {
          "internalType": "uint256",
          "name": "",
          "type": "uint256"
        }
      ],
      "name": "allStudents",
      "outputs": [
        {
          "internalType": "uint256",
          "name": "",
          "type": "uint256"
        }
      ],
      "stateMutability": "view",
      "type": "function",
      "constant": true
    },
    {
      "inputs": [],
      "name": "hello",
      "outputs": [
        {
          "internalType": "string",
          "name": "",
          "type": "string"
        }
      ],
      "stateMutability": "pure",
      "type": "function",
      "constant": true
    },
    {
      "inputs": [
        {
          "internalType": "string",
          "name": "className",
          "type": "string"
        },
        {
          "internalType": "uint256",
          "name": "classId",
          "type": "uint256"
        }
      ],
      "name": "addClass",
      "outputs": [],
      "stateMutability": "nonpayable",
      "type": "function"
    },
    {
      "inputs": [
        {
          "internalType": "string",
          "name": "name",
          "type": "string"
        },
        {
          "internalType": "string",
          "name": "batch",
          "type": "string"
        },
        {
          "internalType": "string",
          "name": "rollno",
          "type": "string"
        },
        {
          "internalType": "string",
          "name": "semester",
          "type": "string"
        },
        {
          "internalType": "string",
          "name": "bigData",
          "type": "string"
        },
        {
          "internalType": "string",
          "name": "disasterManagement",
          "type": "string"
        },
        {
          "internalType": "uint256",
          "name": "studentId",
          "type": "uint256"
        },
        {
          "internalType": "uint256",
          "name": "classId",
          "type": "uint256"
        }
      ],
      "name": "addStudent",
      "outputs": [],
      "stateMutability": "nonpayable",
      "type": "function"
    },
    {
      "inputs": [
        {
          "internalType": "uint256",
          "name": "id",
          "type": "uint256"
        }
      ],
      "name": "getClass",
      "outputs": [
        {
          "internalType": "string",
          "name": "",
          "type": "string"
        }
      ],
      "stateMutability": "view",
      "type": "function",
      "constant": true
    },
    {
      "inputs": [],
      "name": "getAllClasses",
      "outputs": [
        {
          "internalType": "uint256[]",
          "name": "",
          "type": "uint256[]"
        }
      ],
      "stateMutability": "view",
      "type": "function",
      "constant": true
    },
    {
      "inputs": [
        {
          "internalType": "uint256",
          "name": "id",
          "type": "uint256"
        }
      ],
      "name": "getStudent",
      "outputs": [
        {
          "internalType": "string",
          "name": "",
          "type": "string"
        },
        {
          "internalType": "string",
          "name": "",
          "type": "string"
        },
        {
          "internalType": "string",
          "name": "",
          "type": "string"
        },
        {
          "internalType": "string",
          "name": "",
          "type": "string"
        },
        {
          "internalType": "string",
          "name": "",
          "type": "string"
        },
        {
          "internalType": "string",
          "name": "",
          "type": "string"
        }
      ],
      "stateMutability": "view",
      "type": "function",
      "constant": true
    },
    {
      "inputs": [],
      "name": "getAllStudent",
      "outputs": [
        {
          "internalType": "uint256[]",
          "name": "",
          "type": "uint256[]"
        }
      ],
      "stateMutability": "view",
      "type": "function",
      "constant": true
    }
  ],
  "bytecode": "0x608060405234801561001057600080fd5b50610fa0806100206000396000f3fe608060405234801561001057600080fd5b50600436106100935760003560e01c80636bda75dd116100665780636bda75dd146101395780638623225514610157578063b319b5aa14610173578063e6a852cc1461018f578063ea2f2778146101bf57610093565b8063133d04601461009857806319ff1d21146100b6578063512d62df146100d4578063642f916314610104575b600080fd5b6100a06101ef565b6040516100ad9190610a1b565b60405180910390f35b6100be610247565b6040516100cb9190610ad6565b60405180910390f35b6100ee60048036038101906100e99190610b38565b610284565b6040516100fb9190610ad6565b60405180910390f35b61011e60048036038101906101199190610b38565b610332565b60405161013096959493929190610b65565b60405180910390f35b6101416106c8565b60405161014e9190610a1b565b60405180910390f35b610171600480360381019061016c9190610d25565b610720565b005b61018d60048036038101906101889190610e83565b61080a565b005b6101a960048036038101906101a49190610b38565b610868565b6040516101b69190610eee565b60405180910390f35b6101d960048036038101906101d49190610b38565b61088c565b6040516101e69190610eee565b60405180910390f35b6060600180548060200260200160405190810160405280929190818152602001828054801561023d57602002820191906000526020600020905b815481526020019060010190808311610229575b5050505050905090565b60606040518060400160405280600e81526020017f48656c6c6f2053747564656e7473000000000000000000000000000000000000815250905090565b606060006002600084815260200190815260200160002090508060000180546102ac90610f38565b80601f01602080910402602001604051908101604052809291908181526020018280546102d890610f38565b80156103255780601f106102fa57610100808354040283529160200191610325565b820191906000526020600020905b81548152906001019060200180831161030857829003601f168201915b5050505050915050919050565b606080606080606080600060036000898152602001908152602001600020905080600001816001018260020183600301846004018560050185805461037690610f38565b80601f01602080910402602001604051908101604052809291908181526020018280546103a290610f38565b80156103ef5780601f106103c4576101008083540402835291602001916103ef565b820191906000526020600020905b8154815290600101906020018083116103d257829003601f168201915b5050505050955084805461040290610f38565b80601f016020809104026020016040519081016040528092919081815260200182805461042e90610f38565b801561047b5780601f106104505761010080835404028352916020019161047b565b820191906000526020600020905b81548152906001019060200180831161045e57829003601f168201915b5050505050945083805461048e90610f38565b80601f01602080910402602001604051908101604052809291908181526020018280546104ba90610f38565b80156105075780601f106104dc57610100808354040283529160200191610507565b820191906000526020600020905b8154815290600101906020018083116104ea57829003601f168201915b5050505050935082805461051a90610f38565b80601f016020809104026020016040519081016040528092919081815260200182805461054690610f38565b80156105935780601f1061056857610100808354040283529160200191610593565b820191906000526020600020905b81548152906001019060200180831161057657829003601f168201915b505050505092508180546105a690610f38565b80601f01602080910402602001604051908101604052809291908181526020018280546105d290610f38565b801561061f5780601f106105f45761010080835404028352916020019161061f565b820191906000526020600020905b81548152906001019060200180831161060257829003601f168201915b5050505050915080805461063290610f38565b80601f016020809104026020016040519081016040528092919081815260200182805461065e90610f38565b80156106ab5780601f10610680576101008083540402835291602001916106ab565b820191906000526020600020905b81548152906001019060200180831161068e57829003601f168201915b505050505090509650965096509650965096505091939550919395565b6060600080548060200260200160405190810160405280929190818152602001828054801561071657602002820191906000526020600020905b815481526020019060010190808311610702575b5050505050905090565b60006003600084815260200190815260200160002090508881600001908051906020019061074f9291906108b0565b50878160010190805190602001906107689291906108b0565b50868160020190805190602001906107819291906108b0565b508581600301908051906020019061079a9291906108b0565b50848160040190805190602001906107b39291906108b0565b50838160050190805190602001906107cc9291906108b0565b508181600601819055506001839080600181540180825580915050600190039060005260206000200160009091909190915055505050505050505050565b6000600260008381526020019081526020016000209050828160000190805190602001906108399291906108b0565b506000829080600181540180825580915050600190039060005260206000200160009091909190915055505050565b6001818154811061087857600080fd5b906000526020600020016000915090505481565b6000818154811061089c57600080fd5b906000526020600020016000915090505481565b8280546108bc90610f38565b90600052602060002090601f0160209004810192826108de5760008555610925565b82601f106108f757805160ff1916838001178555610925565b82800160010185558215610925579182015b82811115610924578251825591602001919060010190610909565b5b5090506109329190610936565b5090565b5b8082111561094f576000816000905550600101610937565b5090565b600081519050919050565b600082825260208201905092915050565b6000819050602082019050919050565b6000819050919050565b6109928161097f565b82525050565b60006109a48383610989565b60208301905092915050565b6000602082019050919050565b60006109c882610953565b6109d2818561095e565b93506109dd8361096f565b8060005b83811015610a0e5781516109f58882610998565b9750610a00836109b0565b9250506001810190506109e1565b5085935050505092915050565b60006020820190508181036000830152610a3581846109bd565b905092915050565b600081519050919050565b600082825260208201905092915050565b60005b83811015610a77578082015181840152602081019050610a5c565b83811115610a86576000848401525b50505050565b6000601f19601f8301169050919050565b6000610aa882610a3d565b610ab28185610a48565b9350610ac2818560208601610a59565b610acb81610a8c565b840191505092915050565b60006020820190508181036000830152610af08184610a9d565b905092915050565b6000604051905090565b600080fd5b600080fd5b610b158161097f565b8114610b2057600080fd5b50565b600081359050610b3281610b0c565b92915050565b600060208284031215610b4e57610b4d610b02565b5b6000610b5c84828501610b23565b91505092915050565b600060c0820190508181036000830152610b7f8189610a9d565b90508181036020830152610b938188610a9d565b90508181036040830152610ba78187610a9d565b90508181036060830152610bbb8186610a9d565b90508181036080830152610bcf8185610a9d565b905081810360a0830152610be38184610a9d565b9050979650505050505050565b600080fd5b600080fd5b7f4e487b7100000000000000000000000000000000000000000000000000000000600052604160045260246000fd5b610c3282610a8c565b810181811067ffffffffffffffff82111715610c5157610c50610bfa565b5b80604052505050565b6000610c64610af8565b9050610c708282610c29565b919050565b600067ffffffffffffffff821115610c9057610c8f610bfa565b5b610c9982610a8c565b9050602081019050919050565b82818337600083830152505050565b6000610cc8610cc384610c75565b610c5a565b905082815260208101848484011115610ce457610ce3610bf5565b5b610cef848285610ca6565b509392505050565b600082601f830112610d0c57610d0b610bf0565b5b8135610d1c848260208601610cb5565b91505092915050565b600080600080600080600080610100898b031215610d4657610d45610b02565b5b600089013567ffffffffffffffff811115610d6457610d63610b07565b5b610d708b828c01610cf7565b985050602089013567ffffffffffffffff811115610d9157610d90610b07565b5b610d9d8b828c01610cf7565b975050604089013567ffffffffffffffff811115610dbe57610dbd610b07565b5b610dca8b828c01610cf7565b965050606089013567ffffffffffffffff811115610deb57610dea610b07565b5b610df78b828c01610cf7565b955050608089013567ffffffffffffffff811115610e1857610e17610b07565b5b610e248b828c01610cf7565b94505060a089013567ffffffffffffffff811115610e4557610e44610b07565b5b610e518b828c01610cf7565b93505060c0610e628b828c01610b23565b92505060e0610e738b828c01610b23565b9150509295985092959890939650565b60008060408385031215610e9a57610e99610b02565b5b600083013567ffffffffffffffff811115610eb857610eb7610b07565b5b610ec485828601610cf7565b9250506020610ed585828601610b23565b9150509250929050565b610ee88161097f565b82525050565b6000602082019050610f036000830184610edf565b92915050565b7f4e487b7100000000000000000000000000000000000000000000000000000000600052602260045260246000fd5b60006002820490506001821680610f5057607f821691505b60208210811415610f6457610f63610f09565b5b5091905056fea26469706673582212202043d6c2946c3e0c453883e8377ada586bed7105aa6570ddda12ba9757e4026a64736f6c634300080b0033",
  "immutableReferences": {},
  "source": "// SPDX-License-Identifier: MIT\npragma solidity >=0.4.22 <0.9.0;\n\ncontract StudentResult {\n    uint256[] public allClasses;\n\n    uint256[] public allStudents;\n\n    struct classInfo {\n        string className;\n    }\n\n    struct studentInfo {\n        string name;\n        string batch;\n        string rollno;\n        string semester;\n        string bigData;\n        string disasterManagement;\n        uint256 classId;\n    }\n\n    mapping(uint256 => classInfo) classes;\n\n    mapping(uint256 => studentInfo) students;\n\n    function hello() public pure returns (string memory) {\n        return \"Hello Students\";\n    }\n\n    function addClass(\n        string memory className,\n        uint256 classId\n    ) public {\n        classInfo storage newClass = classes[classId];\n        newClass.className = className;\n        allClasses.push(classId);\n    }\n\n    function addStudent(\n        string memory name,\n        string memory batch,\n        string memory rollno,\n        string memory semester,\n        string memory bigData,\n        string memory disasterManagement,\n        uint256 studentId,\n        uint256 classId\n    ) public {\n        studentInfo storage newStudents = students[studentId];\n        newStudents.name = name;\n        newStudents.batch = batch;\n        newStudents.rollno = rollno;\n        newStudents.semester = semester;\n        newStudents.bigData = bigData;\n        newStudents.disasterManagement = disasterManagement;\n        newStudents.classId = classId;\n        \n        allStudents.push(studentId);\n    }\n\n    function getClass(uint256 id) public view returns (string memory){\n        classInfo storage c = classes[id];\n        return c.className;\n    }\n\n    function getAllClasses() public view returns (uint256[] memory){\n        return allClasses;\n    }\n\n    function getStudent(uint256 id) public view returns (string memory, string memory, string memory, string memory, string memory, string memory){\n        studentInfo storage s = students[id];\n        return (s.name, s.batch, s.rollno, s.semester, s.bigData, s.disasterManagement);\n    }\n\n    function getAllStudent() public view returns (uint256[] memory){\n        return allStudents;\n    }\n}\n",
  "sourcePath": "/home/hirendra/Web Projects/Other/Blockchain/Blockchain Based Student Result Management System/Blockchain-Based-Student-Result-Management-System/Contracts/contracts/StudentResult.sol",
  "compiler": {
    "name": "solc",
    "version": "0.8.11+commit.d7f03943.Emscripten.clang"
  },
  "schemaVersion": "3.4.4",
  "updatedAt": "2022-03-13T15:47:38.763Z",
  "networkType": "ethereum",
  "devdoc": {
    "kind": "dev",
    "methods": {},
    "version": 1
  },
  "userdoc": {
    "kind": "user",
    "methods": {},
    "version": 1
  }
}