{
  "contractName": "ThirdSem",
  "abi": [
    {
      "inputs": [
        {
          "internalType": "uint256",
          "name": "",
          "type": "uint256"
        }
      ],
      "name": "thirdSem",
      "outputs": [
        {
          "internalType": "uint256",
          "name": "",
          "type": "uint256"
        }
      ],
      "stateMutability": "view",
      "type": "function",
      "constant": true
    },
    {
      "inputs": [
        {
          "internalType": "string",
          "name": "mathemetics",
          "type": "string"
        },
        {
          "internalType": "string",
          "name": "economics",
          "type": "string"
        },
        {
          "internalType": "string",
          "name": "electronics",
          "type": "string"
        },
        {
          "internalType": "string",
          "name": "dsa",
          "type": "string"
        },
        {
          "internalType": "string",
          "name": "oop",
          "type": "string"
        },
        {
          "internalType": "string",
          "name": "software",
          "type": "string"
        },
        {
          "internalType": "string",
          "name": "dsaLab",
          "type": "string"
        },
        {
          "internalType": "string",
          "name": "oopLab",
          "type": "string"
        },
        {
          "internalType": "string",
          "name": "softwareLab",
          "type": "string"
        },
        {
          "internalType": "string",
          "name": "electronicsLab",
          "type": "string"
        },
        {
          "internalType": "string",
          "name": "training",
          "type": "string"
        },
        {
          "internalType": "uint256",
          "name": "studentId",
          "type": "uint256"
        }
      ],
      "name": "addThirdSemesterInfo",
      "outputs": [],
      "stateMutability": "nonpayable",
      "type": "function"
    },
    {
      "inputs": [],
      "name": "getThirdSemester",
      "outputs": [
        {
          "components": [
            {
              "internalType": "string",
              "name": "mathemetics",
              "type": "string"
            },
            {
              "internalType": "string",
              "name": "economics",
              "type": "string"
            },
            {
              "internalType": "string",
              "name": "electronics",
              "type": "string"
            },
            {
              "internalType": "string",
              "name": "dsa",
              "type": "string"
            },
            {
              "internalType": "string",
              "name": "oop",
              "type": "string"
            },
            {
              "internalType": "string",
              "name": "software",
              "type": "string"
            },
            {
              "internalType": "string",
              "name": "dsaLab",
              "type": "string"
            },
            {
              "internalType": "string",
              "name": "oopLab",
              "type": "string"
            },
            {
              "internalType": "string",
              "name": "softwareLab",
              "type": "string"
            },
            {
              "internalType": "string",
              "name": "electronicsLab",
              "type": "string"
            },
            {
              "internalType": "string",
              "name": "training",
              "type": "string"
            },
            {
              "internalType": "uint256",
              "name": "studentId",
              "type": "uint256"
            }
          ],
          "internalType": "struct ThirdSem.thirdSemInfo[]",
          "name": "",
          "type": "tuple[]"
        }
      ],
      "stateMutability": "view",
      "type": "function",
      "constant": true
    }
  ],
  "bytecode": "0x6080604052600060015534801561001557600080fd5b50611024806100256000396000f3fe608060405234801561001057600080fd5b506004361061005d577c0100000000000000000000000000000000000000000000000000000000600035046320e6ac9181146100625780637c75a06d14610077578063fa8eb96f1461009d575b600080fd5b610075610070366004610b71565b6100b2565b005b61008a610085366004610d85565b6102a8565b6040519081526020015b60405180910390f35b6100a56102c9565b6040516100949190610deb565b60008190806001815401808255809150506001900390600052602060002001600090919091909150556040518061018001604052808d81526020018c81526020018b81526020018a815260200189815260200188815260200187815260200186815260200185815260200184815260200183815260200182815250600260006001548152602001908152602001600020600082015181600001908051906020019061015e929190610a32565b5060208281015180516101779260018501920190610a32565b5060408201518051610193916002840191602090910190610a32565b50606082015180516101af916003840191602090910190610a32565b50608082015180516101cb916004840191602090910190610a32565b5060a082015180516101e7916005840191602090910190610a32565b5060c08201518051610203916006840191602090910190610a32565b5060e0820151805161021f916007840191602090910190610a32565b50610100820151805161023c916008840191602090910190610a32565b506101208201518051610259916009840191602090910190610a32565b50610140820151805161027691600a840191602090910190610a32565b506101609190910151600b909101556001805490600061029583610f71565b9190505550505050505050505050505050565b600081815481106102b857600080fd5b600091825260209091200154905081565b6060600060015467ffffffffffffffff8111156102e8576102e8610acb565b60405190808252806020026020018201604052801561037d57816020015b61036a6040518061018001604052806060815260200160608152602001606081526020016060815260200160608152602001606081526020016060815260200160608152602001606081526020016060815260200160608152602001600081525090565b8152602001906001900390816103065790505b50905060005b600154811015610a2c57600081815260026020526040908190208151610180810190925280549091908290829082906103bb90610f9d565b80601f01602080910402602001604051908101604052809291908181526020018280546103e790610f9d565b80156104345780601f1061040957610100808354040283529160200191610434565b820191906000526020600020905b81548152906001019060200180831161041757829003601f168201915b5050505050815260200160018201805461044d90610f9d565b80601f016020809104026020016040519081016040528092919081815260200182805461047990610f9d565b80156104c65780601f1061049b576101008083540402835291602001916104c6565b820191906000526020600020905b8154815290600101906020018083116104a957829003601f168201915b505050505081526020016002820180546104df90610f9d565b80601f016020809104026020016040519081016040528092919081815260200182805461050b90610f9d565b80156105585780601f1061052d57610100808354040283529160200191610558565b820191906000526020600020905b81548152906001019060200180831161053b57829003601f168201915b5050505050815260200160038201805461057190610f9d565b80601f016020809104026020016040519081016040528092919081815260200182805461059d90610f9d565b80156105ea5780601f106105bf576101008083540402835291602001916105ea565b820191906000526020600020905b8154815290600101906020018083116105cd57829003601f168201915b5050505050815260200160048201805461060390610f9d565b80601f016020809104026020016040519081016040528092919081815260200182805461062f90610f9d565b801561067c5780601f106106515761010080835404028352916020019161067c565b820191906000526020600020905b81548152906001019060200180831161065f57829003601f168201915b5050505050815260200160058201805461069590610f9d565b80601f01602080910402602001604051908101604052809291908181526020018280546106c190610f9d565b801561070e5780601f106106e35761010080835404028352916020019161070e565b820191906000526020600020905b8154815290600101906020018083116106f157829003601f168201915b5050505050815260200160068201805461072790610f9d565b80601f016020809104026020016040519081016040528092919081815260200182805461075390610f9d565b80156107a05780601f10610775576101008083540402835291602001916107a0565b820191906000526020600020905b81548152906001019060200180831161078357829003601f168201915b505050505081526020016007820180546107b990610f9d565b80601f01602080910402602001604051908101604052809291908181526020018280546107e590610f9d565b80156108325780601f1061080757610100808354040283529160200191610832565b820191906000526020600020905b81548152906001019060200180831161081557829003601f168201915b5050505050815260200160088201805461084b90610f9d565b80601f016020809104026020016040519081016040528092919081815260200182805461087790610f9d565b80156108c45780601f10610899576101008083540402835291602001916108c4565b820191906000526020600020905b8154815290600101906020018083116108a757829003601f168201915b505050505081526020016009820180546108dd90610f9d565b80601f016020809104026020016040519081016040528092919081815260200182805461090990610f9d565b80156109565780601f1061092b57610100808354040283529160200191610956565b820191906000526020600020905b81548152906001019060200180831161093957829003601f168201915b50505050508152602001600a8201805461096f90610f9d565b80601f016020809104026020016040519081016040528092919081815260200182805461099b90610f9d565b80156109e85780601f106109bd576101008083540402835291602001916109e8565b820191906000526020600020905b8154815290600101906020018083116109cb57829003601f168201915b50505050508152602001600b82015481525050838381518110610a0d57610a0d610fd5565b6020026020010181905250508080610a2490610f71565b915050610383565b50919050565b828054610a3e90610f9d565b90600052602060002090601f016020900481019282610a605760008555610aa6565b82601f10610a7957805160ff1916838001178555610aa6565b82800160010185558215610aa6579182015b82811115610aa6578251825591602001919060010190610a8b565b50610ab2929150610ab6565b5090565b5b80821115610ab25760008155600101610ab7565b60e060020a634e487b7102600052604160045260246000fd5b600082601f830112610af557600080fd5b813567ffffffffffffffff80821115610b1057610b10610acb565b604051601f8301601f19908116603f01168101908282118183101715610b3857610b38610acb565b81604052838152866020858801011115610b5157600080fd5b836020870160208301376000602085830101528094505050505092915050565b6000806000806000806000806000806000806101808d8f031215610b9457600080fd5b67ffffffffffffffff8d351115610baa57600080fd5b610bb78e8e358f01610ae4565b9b5067ffffffffffffffff60208e01351115610bd257600080fd5b610be28e60208f01358f01610ae4565b9a5067ffffffffffffffff60408e01351115610bfd57600080fd5b610c0d8e60408f01358f01610ae4565b995067ffffffffffffffff60608e01351115610c2857600080fd5b610c388e60608f01358f01610ae4565b985067ffffffffffffffff60808e01351115610c5357600080fd5b610c638e60808f01358f01610ae4565b975067ffffffffffffffff60a08e01351115610c7e57600080fd5b610c8e8e60a08f01358f01610ae4565b965067ffffffffffffffff60c08e01351115610ca957600080fd5b610cb98e60c08f01358f01610ae4565b955067ffffffffffffffff60e08e01351115610cd457600080fd5b610ce48e60e08f01358f01610ae4565b945067ffffffffffffffff6101008e01351115610d0057600080fd5b610d118e6101008f01358f01610ae4565b935067ffffffffffffffff6101208e01351115610d2d57600080fd5b610d3e8e6101208f01358f01610ae4565b925067ffffffffffffffff6101408e01351115610d5a57600080fd5b610d6b8e6101408f01358f01610ae4565b91506101608d013590509295989b509295989b509295989b565b600060208284031215610d9757600080fd5b5035919050565b6000815180845260005b81811015610dc457602081850181015186830182015201610da8565b81811115610dd6576000602083870101525b50601f01601f19169290920160200192915050565b60208082528251828201819052600091906040908185019080840286018301878501865b83811015610f6357603f1989840301855281516101808151818652610e3682870182610d9e565b915050888201518582038a870152610e4e8282610d9e565b9150508782015185820389870152610e668282610d9e565b91505060608083015186830382880152610e808382610d9e565b9250505060808083015186830382880152610e9b8382610d9e565b9250505060a08083015186830382880152610eb68382610d9e565b9250505060c08083015186830382880152610ed18382610d9e565b9250505060e08083015186830382880152610eec8382610d9e565b925050506101008083015186830382880152610f088382610d9e565b925050506101208083015186830382880152610f248382610d9e565b925050506101408083015186830382880152610f408382610d9e565b610160948501519790940196909652505094870194925090860190600101610e0f565b509098975050505050505050565b6000600019821415610f965760e060020a634e487b7102600052601160045260246000fd5b5060010190565b600281046001821680610fb157607f821691505b60208210811415610a2c5760e060020a634e487b7102600052602260045260246000fd5b60e060020a634e487b7102600052603260045260246000fdfea2646970667358221220727b636079bb4668c7e14c46fbbdd2e44c10e3fb9dda3b1a6b2f4d7aa8a0617c64736f6c634300080b0033",
  "immutableReferences": {},
  "source": "// SPDX-License-Identifier: MIT\npragma solidity >=0.4.22 <0.9.0;\npragma experimental ABIEncoderV2;\n\ncontract ThirdSem {\n    \n    uint256[] public thirdSem;\n\n    uint256 thirdSemCount = 0;\n\n    struct thirdSemInfo {\n        string mathemetics;\n        string economics;\n        string electronics;\n        string dsa;\n        string oop;\n        string software;\n        string dsaLab;\n        string oopLab;\n        string softwareLab;\n        string electronicsLab;\n        string training;\n        uint256 studentId;\n    }\n\n    mapping(uint256 => thirdSemInfo) thirdSemMap;\n\n    function addThirdSemesterInfo(\n        string memory mathemetics,\n        string memory economics,\n        string memory electronics,\n        string memory dsa,\n        string memory oop,\n        string memory software,\n        string memory dsaLab,\n        string memory oopLab,\n        string memory softwareLab,\n        string memory electronicsLab,\n        string memory training,\n        uint256 studentId\n    ) public {\n        thirdSem.push(studentId);\n        thirdSemMap[thirdSemCount] = thirdSemInfo(\n        mathemetics,\n        economics,\n        electronics,\n        dsa,\n        oop,\n        software,\n        dsaLab,\n        oopLab,\n        softwareLab,\n        electronicsLab,\n        training,\n        studentId\n        );\n        thirdSemCount++;\n    }\n\n    function getThirdSemester() public view returns (thirdSemInfo[] memory) {\n        thirdSemInfo[] memory id = new thirdSemInfo[](thirdSemCount);\n        for (uint256 i = 0; i < thirdSemCount; i++) {\n            thirdSemInfo storage sem = thirdSemMap[i];\n            id[i] = sem;\n        }\n        return id;\n    }\n}\n",
  "sourcePath": "/home/torab/Web Projects/Blockchain/p2/Blockchain-Based-Student-Result-Management-System/Contracts/contracts/ThirdSem.sol",
  "compiler": {
    "name": "solc",
    "version": "0.8.11+commit.d7f03943.Emscripten.clang"
  },
  "schemaVersion": "3.4.7",
  "updatedAt": "2022-06-13T20:59:14.639Z",
  "networkType": "ethereum",
  "devdoc": {
    "kind": "dev",
    "methods": {},
    "version": 1
  },
  "userdoc": {
    "kind": "user",
    "methods": {},
    "version": 1
  }
}